:04000000FEEFFFF020
:1020000000E721CB6B2D6EEE27EF6FAFECC8E9CE6A
:102010008E001768010ECB6E22EF10F0010E176EC6
:102020001750B7EF10F0020E176E1750B7EF10F001
:10203000030E176E1750B7EF10F00A0E176E1750F9
:10204000B7EF10F0CB50110AD8B40EEF10F0300AF1
:10205000D8B413EF10F0600AD8B418EF10F0C00A2B
:10206000D8B41DEF10F035EF10F0020ECB6E4DEF2F
:1020700010F0040E176E1750B7EF10F0050E176E24
:102080001750B7EF10F0060E176E1750B7EF10F09D
:102090000B0E176E1750B7EF10F0CB50120AD8B4D2
:1020A00039EF10F0300AD8B43EEF10F0600AD8B41F
:1020B00043EF10F0C00AD8B448EF10F060EF10F012
:1020C000040ECB6E78EF10F0070E176E1750B7EFB7
:1020D00010F0080E176E1750B7EF10F0090E176EBC
:1020E0001750B7EF10F00C0E176E1750B7EF10F037
:1020F000CB50140AD8B464EF10F0300AD8B469EFAA
:1021000010F0600AD8B46EEF10F0C00AD8B473EFC4
:1021100010F08BEF10F0080ECB6EA3EF10F00E0E48
:10212000176E1750B7EF10F0000E176E1750B7EF7D
:1021300010F00F0E176E1750B7EF10F00D0E176E50
:102140001750B7EF10F0CB50180AD8B48FEF10F03B
:10215000300AD8B494EF10F0600AD8B499EF10F0B8
:10216000C00AD8B49EEF10F0B6EF10F0175012006E
:10217000000E066E04BEC1EF10F0BFEF10F0C7EF07
:1021800010F0036C041ED8B0042A010E066E02BEC5
:10219000CEEF10F0CCEF10F0D4EF10F0016C021E77
:1021A000D8B0022A010E061A000E086E000E076E45
:1021B00003500410D8B4DFEF10F0E1EF10F009EF96
:1021C00011F0010E056EE9EF10F0D89003360436D9
:1021D000052A04AEEEEF10F0F0EF10F0E5EF10F08E
:1021E000D890073608360350015C04500258D8A036
:1021F000FCEF10F0FEEF10F003EF11F00350015E62
:102200000450025A0780D89004320332052EF0EFB2
:1022100010F00650D8B40FEF11F011EF11F015EFD8
:1022200011F0076C081ED8B0082A07C001F008C0DA
:1022300002F01200F00EC36E000EBB6E000ECB6EED
:10224000000E3A01506F000EC56E000EBD6E000EFE
:10225000CD6E000E706FDFEC11F0010ECD6EA8ECAC
:1022600011F0020ECD6E16EC12F016C009F00A6ADB
:1022700015C00BF00C6A14C00DF00E6A63EC11F07F
:10228000136E13503FEC12F0820E126EDE0EE82E2B
:10229000FED7122EFCD709EC10F00E0AD8A453EF8B
:1022A00011F055EF11F041EF11F009EC10F00F0AA9
:1022B000D8A45DEF11F05FEF11F041EF11F02BEFBB
:1022C00011F0FEEFFFF088EF11F009500B24116EB2
:1022D000A6EF11F00B50095C116EA6EF11F009503A
:1022E0000B026F00CCFF11F0A6EF11F009C001F056
:1022F0000AC002F00BC003F00CC004F0B8EC10F000
:102300000150116EA6EF11F0000E116EA6EF11F044
:102310000DC00FF00EC010F01050000AD8B493EFAB
:1023200011F084EF11F00F500A0AD8B465EF11F0E4
:10233000010AD8B46AEF11F0070AD8B46FEF11F0B0
:10234000010AD8B476EF11F084EF11F011501200A9
:10235000000E156E1768B0EF11F009EC10F0176E53
:102360000A0E1760B6EF11F0B8EF11F0ADEF11F0F3
:102370000D0E016EFC0EE82EFED7012EFCD7155077
:10238000100DF3501724156E1768CAEF11F009EC01
:1023900010F0176E0A0E1760D0EF11F0D2EF11F0A7
:1023A000C7EF11F00D0E016EFC0EE82EFED7012EC8
:1023B000FCD71550100DF3501724156E1200000EA7
:1023C000166E1768E7EF11F009EC10F0176E0A0EA1
:1023D0001760EDEF11F0EFEF11F0E4EF11F00D0EDB
:1023E000016EFC0EE82EFED7012EFCD71650100D04
:1023F000F3501724166E176801EF12F009EC10F075
:10240000176E0A0E176007EF12F009EF12F0FEEFD9
:1024100011F00D0E016EFC0EE82EFED7012EFCD73A
:102420001650100DF3501724166E1200000E146E85
:1024300017681EEF12F009EC10F0176E0E0E176001
:1024400024EF12F026EF12F01BEF12F0090E1764C2
:102450002CEF12F02EEF12F01BEF12F00D0E016EAA
:10246000FC0EE82EFED7012EFCD717C014F0120088
:10247000166A156A146A136A00011AEF11F0016EE8
:08248000600007F0CDFF12001F
:020000040001F9
:04FFFC0038EF12F0D8
:00000001FF
