:04000000FEEFFFF020
:10200000000016EF10F0600023F0F6FF600027F0EC
:10201000F7FF60002BF0F8FF0800F55066EC10F0B9
:10202000010E0826000E0922000E0A22600023F08D
:10203000F6FF600027F0F7FF60002BF0F8FF0800C4
:10204000F5500009D8A427EF10F029EF10F003EFA6
:1020500010F01200000E046E000E036E43EF10F03D
:10206000000E066E000E056E054A062A065009E1AE
:10207000A50E055CD8A03FEF10F041EF10F034EF53
:1020800010F0034A042A0150035C02500458D8A0FF
:102090004CEF10F04EEF10F030EF10F01200000E89
:1020A000026E0F0E016E2AEC10F0000EC36E000ED1
:1020B000C56E010E75EC10F0380E75EC10F00C0EBC
:1020C00075EC10F0070E75EC10F01200076E600052
:1020D0001FF0CBFFCD80CD820000CD92000E026EAE
:1020E000010E016E2AEC10F01200076E60001FF066
:1020F000CBFFCD90CD820000CD92000E026E030E7C
:10210000016E2AEC10F012004FEC10F0630E086E16
:10211000620E096E000E0A6E01EC10F08EEF10F0E8
:0E212000FEEFFFF0000EF86E000184EF10F0ED
:020000040001F9
:04FFFC0092EF10F080
:020000040030CA
:0A000000F8FFFFFF9FFFFFFFFFFF67
:00000001FF
