:04000000FEEFFFF020
:1020000000496E707574204C696768743A00252E1B
:10201000306600204C757800696E66006E616E0057
:0120200000BF
:10202200000E0001816F3FC082F040C083F041C0CA
:1020320084F042C085F085BF23EF10F021EF10F04D
:1020420037EF10F0010E816F82C001F083C002F001
:1020520084C003F085C004F095EC23F001C082F047
:1020620002C083F003C084F004C085F0000E0001BA
:10207200876F000E866F5AC071F05BC072F081519B
:10208200D8B446EF10F048EF10F05CEF10F0815139
:10209200D8A44EEF10F050EF10F056EF10F0000EF3
:1020A200676F2B0E666F5AEF10F0000E676F2D0EE2
:1020B200666F66C081F082C001F083C002F084C006
:1020C20003F085C004F032EC20F001040210D8A421
:1020D2006DEF10F06FEF10F09EEF10F000018151E4
:1020E200D8B476EF10F078EF10F081EF10F081C0E5
:1020F20000F17107D8A07207000E876F010E866F7C
:10210200000E8625016E010E8721026E180E036EE7
:10211200D1EC22F00001FD0E7127FF0E72233EC0AA
:102122000FF0000E106E010E116E71C012F072C02F
:1021320013F0F0EC21F006EF15F082C001F083C03D
:1021420002F084C003F085C004F032EC20F00150AC
:102152000210D8A4AFEF10F0B1EF10F0CFEF10F0F3
:1021620000018151D8B4B8EF10F0BAEF10F0C3EF0C
:1021720010F081C000F17107D8A07207000E876FBE
:10218200010E866F000E8625016E010E8721026EFA
:102192001C0E036ED1EC22F08BEF10F0000E00014A
:1021A200886F000E896F800E8A6F3F0E8B6F000E54
:1021B200706F000E6F6F82C001F083C002F084C0A6
:1021C20003F085C004F0000E056E000E066E000ED0
:1021D200076E000E086E62EC21F0D8B0F3EF10F03B
:1021E200F5EF10F0D4EF11F002EF11F073C088F0A8
:1021F20074C089F075C08AF076C08BF000016F4B15
:10220200702B88C019F089C01AF08AC01BF08BC0ED
:102212001CF0000E1D6E000E1E6E200E1F6E410E73
:10222200206E67EC17F019C073F01AC074F01BC06F
:1022320075F01CC076F000017351825D016E74511D
:102242008359026E75518459036E76518559046E15
:1022520081EC22F004BE39EF11F004500310021099
:1022620009E1020E015CD8A039EF11F03BEF11F049
:10227200F7EF10F073C032F074C033F075C034F071
:1022820076C035F082C036F083C037F084C038F0B3
:1022920085C039F0B0EC1FF0D8A052EF11F054EF26
:1022A20011F0F7EF10F000018851825D016E895143
:1022B2008359026E8A518459036E8B518559046E7B
:1022C20081EC22F004BE73EF11F0045003100210EF
:1022D20007E1020E015CD8B071EF11F073EF11F05B
:1022E200BBEF11F088C082F089C083F08AC084F00D
:1022F2008BC085F0D4EF11F088C001F089C002F0E4
:102302008AC003F08BC004F0000E056E000E066E4C
:10231200200E076E410E086E8EEC19F001C088F097
:1023220002C089F003C08AF004C08BF000016F077D
:10233200D8A070078851825D016E89518359026E5F
:102342008A518459036E8B518559046E81EC22F0B7
:1023520004BEB9EF11F004500310021007E1020E9F
:10236200015CD8B0B7EF11F0B9EF11F0BBEF11F08B
:1023720073EF11F082C032F083C033F084C034F0C6
:1023820085C035F088C036F089C037F08AC038F091
:102392008BC039F0B0EC1FF0D8A0D2EF11F0D4EF1F
:1023A20011F07DEF11F043C069F069C06AF05DBEC3
:1023B200DDEF11F0DFEF11F0E5EF11F05CC062F03C
:1023C2005DC063F0EAEF11F0000E0001636F060ECC
:1023D200626F62C06DF063C06EF000016D4B6E2BD8
:1023E200660E6A19D8A4F8EF11F0FAEF11F01AEF9D
:1023F20012F070BF01EF12F0FFEF11F00DEF12F0CB
:10240200000E886F000E896F800E8A6F3F0E8B6FF1
:10241200000E706F000E6F6F670E6919D8B414EF5B
:1024220012F016EF12F01AEF12F06F516D27705181
:102432006E23000E786F000E776F82C079F083C032
:102442007AF084C07BF085C07CF088C073F089C0CC
:1024520074F08AC075F08BC076F0ABEF12F079C0E1
:1024620001F07AC002F07BC003F07CC004F088C0A7
:1024720005F089C006F08AC007F08BC008F08EEC28
:1024820019F001C01AF002C01BF003C01CF004C016
:102492001DF05BEC1BF01AC07DF01BC07EF01CC06F
:1024A2007FF01DC080F07DC001F07EC002F07FC0D1
:1024B20003F080C004F02DEC1FF001C06BF002C0ED
:1024C2006CF079C011F07AC012F07BC013F07CC0BE
:1024D20014F07DC01DF07EC01EF07FC01FF080C0D2
:1024E20020F088C019F089C01AF08AC01BF08BC096
:1024F2001CF067EC17F019C015F01AC016F01BC0DB
:1025020017F01CC018F0F4EC22F011C079F012C0E0
:102512007AF013C07BF014C07CF088C001F089C04F
:1025220002F08AC003F08BC004F0000E056E000EAC
:10253200066E200E076E410E086E8EEC19F001C079
:1025420088F002C089F003C08AF004C08BF0000159
:10255200774B782B6D51775D7851800A446E6E51BE
:10256200800A4458D8A0B8EF12F0BAEF12F030EF58
:1025720012F088C019F089C01AF08AC01BF08BC013
:102582001CF0000E1D6E000E1E6EA00E1F6E400E81
:10259200206E67EC17F019C07DF01AC07EF01BC0E8
:1025A2007FF01CC080F079C032F07AC033F07BC07B
:1025B20034F07CC035F07DC036F07EC037F07FC08D
:1025C20038F080C039F0B0EC1FF0D8B0EBEF12F069
:1025D200EDEF12F0F8EF12F0000E00017D6F000E29
:1025E2007E6F000E7F6F000E806F21EF13F079C0B7
:1025F20001F07AC002F07BC003F07CC004F07DC021
:1026020005F07EC006F07FC007F080C008F062ECE3
:1026120021F0D8A00FEF13F011EF13F021EF13F018
:1026220000016BB117EF13F019EF13F021EF13F064
:10263200000E7D6F000E7E6F000E7F6F000E806FAA
:1026420082C001F083C002F084C003F085C004F0B0
:102652007DC005F07EC006F07FC007F080C008F0A4
:1026620007EC15F001C079F002C07AF003C07BF0EC
:1026720004C07CF079C032F07AC033F07BC034F011
:102682007CC035F0000E1D6E000E1E6E200E1F6EF9
:10269200410E206E73C019F074C01AF075C01BF0A1
:1026A20076C01CF067EC17F019C036F01AC037F08C
:1026B2001BC038F01CC039F0B0EC1FF0D8A064EF9A
:1026C20013F066EF13F08FEF13F000016F4B702BD6
:1026D20073C019F074C01AF075C01BF076C01CF0FC
:1026E200000E1D6E000E1E6E200E1F6E410E206E1D
:1026F20067EC17F019C073F01AC074F01BC075F0C4
:102702001CC076F0660E00016A19D8A48BEF13F094
:102712008DEF13F08FEF13F06D4B6E2B73C088F0BB
:1027220074C089F075C08AF076C08BF06FC060F01B
:1027320070C061F0000E0001686F000E656F000E40
:10274200646F000E786F000E776F8DEF14F079C012
:1027520001F07AC002F07BC003F07CC004F088C0B4
:1027620005F089C006F08AC007F08BC008F08EEC35
:1027720019F001C01AF002C01BF003C01CF004C023
:102782001DF05BEC1BF01AC07DF01BC07EF01CC07C
:102792007FF01DC080F07DC001F07EC002F07FC0DE
:1027A20003F080C004F02DEC1FF002BEE4EF13F042
:1027B200025007E10A0E015CD8B0E2EF13F0E4EF39
:1027C20013F0F4EF13F07DC001F07EC002F07FC081
:1027D20003F080C004F02DEC1FF001C06BF002C0CA
:1027E2006CF0F9EF13F0000E00016C6F090E6B6FC5
:1027F20000016851D8A400EF14F002EF14F02AEFA0
:1028020014F061BF09EF14F007EF14F02AEF14F08F
:10281200000E8625D96E010E8721DA6E2E0EDF6E2E
:10282200864B872B7107D8A07207010E686F2AEFBB
:1028320014F0000E8625D96E010E8721DA6E300E55
:10284200DF6E864B872B7107D8A072076407D8A06A
:10285200650764516511D8A431EF14F033EF14F019
:102862001AEF14F0000E8625D96E010E8721DA6E5A
:102872006B51300FDF6E864B872B7107D8A0720722
:1028820079C011F07AC012F07BC013F07CC014F052
:102892007DC01DF07EC01EF07FC01FF080C020F002
:1028A20088C019F089C01AF08AC01BF08BC01CF0D6
:1028B20067EC17F019C015F01AC016F01BC017F01C
:1028C2001CC018F0F4EC22F011C079F012C07AF0BA
:1028D20013C07BF014C07CF088C001F089C002F004
:1028E2008AC003F08BC004F0000E056E000E066E67
:1028F200200E076E410E086E8EEC19F001C088F0B2
:1029020002C089F003C08AF004C08BF000016007A6
:10291200D8A06107774B782B6D51775D7851800A8B
:10292200446E6E51800A4458D8B09AEF14F09CEF6E
:1029320014F0AAEF14F087BFA8EF14F0875109E151
:102942004B0E865DD8A0A8EF14F0AAEF14F0A8EF02
:1029520013F0000E786F4F0E776F000E7725D96E49
:10296200010E7821DA6EDF6A000E446E010E456EAA
:102972008651445E8751455A77514424016E7851FD
:102982004520026E000E036E010E046E86C005F035
:1029920087C006F054EC22F000018651775D866F05
:1029A20087517859876F8151D8A4DAEF14F0DDEF9F
:1029B20014F0010EDEEF14F0000E776F786B815188
:1029C200D8B4E6EF14F0E8EF14F0F4EF14F0860751
:1029D200D8A08707000E8625D96E010E8721DA6EF0
:1029E200600007F2DFFF7751715F7851725B3EC082
:1029F2000FF0000E8625106E010E8721116E71C038
:102A020012F072C013F0F0EC21F012000450800BAF
:102A12000D6E045004240F6E03AE12EF15F014EF86
:102A220015F015EF15F00F800F50D8B41BEF15F00D
:102A32001DEF15F032EF15F00F28D8A423EF15F093
:102A420025EF15F02DEF15F0000E016E000E026E4F
:102A5200000E036E000E046E038E000E046E3AEF3B
:102A620015F0000E016E000E026E000E036E000ED7
:102A7200046E0850800B0E6E0D500E18D8B444EF41
:102A820015F046EF15F047EF15F00D8C08500824AD
:102A92000E6E07AE4FEF15F051EF15F052EF15F035
:102AA2000E800E50D8B458EF15F05AEF15F06FEFB4
:102AB20015F00E28D8A460EF15F062EF15F06AEF5A
:102AC20015F0000E056E000E066E000E076E000E6B
:102AD200086E078E000E086E77EF15F0000E056E79
:102AE200000E066E000E076E000E086E0F500E5C92
:102AF200D8B07EEF15F080EF15F0A7EF15F00DAC12
:102B020085EF15F087EF15F089EF15F0800E0D1A9D
:102B12000FC010F00EC00FF010C00EF001C010F088
:102B220005C001F010C005F002C010F006C002F0AE
:102B320010C006F003C010F007C003F010C007F089
:102B420004C010F008C004F010C008F0000E106EAF
:102B52000F500EC009F00A6A095E000E0A5A0ABE38
:102B6200BCEF15F00A5009E11A0E095CD8A0BCEFBF
:102B720015F0BEEF15F0F5EF15F00150021003103D
:102B82000410D8A4C7EF15F0CAEF15F0010ECBEF71
:102B920015F0000E106E000E016E000E026E000E99
:102BA200036E000E046E0EC00FF0FEEF15F010A0C3
:102BB200DDEF15F0DFEF15F0E5EF15F0D8901030EE
:102BC2000109106EE7EF15F0D890103201A0ECEF7A
:102BD20015F0EEEF15F0EFEF15F0108E043404321D
:102BE2000332023201320F2A0E500F5CD8A0FCEFE2
:102BF20015F0FEEF15F0D8EF15F00DBC03EF16F04F
:102C020005EF16F045EF16F00F50D8A40BEF16F0B3
:102C12000DEF16F017EF16F0000E016E000E026EA9
:102C2200000E036E000E046E66EF17F005500126CB
:102C320006500222075003220850042204A024EF67
:102C420016F026EF16F0D2EF16F010A02BEF16F0CA
:102C52002DEF16F033EF16F0D89010300109106EF8
:102C620035EF16F0D890103201A03AEF16F03CEF93
:102C720016F03DEF16F0108E0434043203320232A5
:102C820001320F2AD2EF16F00550015C06500258AD
:102C9200075003580450800A096E0850800A0958E8
:102CA200D8B056EF16F058EF16F083EF16F0015039
:102CB200055C096E025006580A6E035007580B6EE7
:102CC200045008580C6EFF0E0924016EFF0E0A20F4
:102CD200026EFF0E0B20036EFF0E0C20046E800EA0
:102CE2000D1A106C1050D8A479EF16F07BEF16F085
:102CF2008BEF16F0010E0126000E0222032204229F
:102D02008BEF16F00550015E0650025A0750035A27
:102D12000850045A0150021003100410D8A494EF72
:102D220016F096EF16F0CBEF16F01050D8A49CEFE9
:102D320016F09EEF16F0CBEF16F0000E016E000EAD
:102D4200026E000E036E000E046E66EF17F0D8904E
:102D5200013602360336043610AEB2EF16F0B4EF87
:102D620016F0B5EF16F0018010A0BAEF16F0BCEF26
:102D720016F0C0EF16F0D8801036C2EF16F0D890D9
:102D820010360F50D8B4C8EF16F0CAEF16F0CBEFDA
:102D920016F00F0603AED0EF16F0D2EF16F0A8EF42
:102DA20016F0000E0E6E10AED9EF16F0DBEF16F035
:102DB200F3EF16F010C009F07F0E0916D8B4E4EF55
:102DC20016F0E6EF16F0EAEF16F0010E0E6EF3EFD4
:102DD20016F001A0EFEF16F0F1EF16F0F3EF16F098
:102DE200E6EF16F00E50D8B4F9EF16F0FBEF16F03E
:102DF20026EF17F0010E0126000E02220322042202
:102E020004A006EF17F008EF17F026EF17F001C045
:102E120009F002C00AF003C00BF004C00CF00C343D
:102E22000C320B320A32093209C001F00AC002F038
:102E32000BC003F00CC004F00F28D8B423EF17F036
:102E420025EF17F026EF17F00F2A0F28D8B42CEF32
:102E520017F02EEF17F036EF17F00F50D8A434EF1B
:102E620017F036EF17F048EF17F0000E016E000E64
:102E7200026E000E036E000E046E0F50D8A444EFD3
:102E820017F046EF17F048EF17F0000E0D6E0FA087
:102E92004DEF17F04FEF17F052EF17F0038E53EF8D
:102EA20017F0039ED8900F30046E0DAE5BEF17F053
:102EB2005DEF17F05EEF17F0048E01C001F002C063
:102EC20002F003C003F004C004F012001C50800B97
:102ED200256E1C501C242B6E1BAE72EF17F074EF84
:102EE20017F075EF17F02B802B50D8B47BEF17F04B
:102EF2007DEF17F090EF17F02B28D8A483EF17F08F
:102F020085EF17F08DEF17F0000E196E000E1A6E96
:102F1200000E1B6E000E1C6E1B8E98EF17F0000E3B
:102F2200196E000E1A6E000E1B6E000E1C6E2050E3
:102F3200800B251A205020242A6E1FAEA3EF17F013
:102F4200A5EF17F0A6EF17F02A802A50D8B4ACEFFD
:102F520017F0AEEF17F0C1EF17F02A28D8A4B4EF9C
:102F620017F0B6EF17F0BEEF17F0000E1D6E000E51
:102F72001E6E000E1F6E000E206E1F8EC9EF17F020
:102F8200000E1D6E000E1E6E000E1F6E000E206ED5
:102F92002A50D8B4CFEF17F0D1EF17F0D9EF17F0CE
:102FA2002B50D8A4D7EF17F0D9EF17F0E3EF17F0B3
:102FB200000E196E000E1A6E000E1B6E000E1C6EB5
:102FC2008DEF19F01F5019026F00CCFF30F06F0027
:102FD200D0FF31F03050266E276A286A296A3150B4
:102FE2002C6E2D6A2E6A2F6A1E501A026F00CCFFB9
:102FF20030F06F00D0FF31F030502626000E27222D
:103002002822292231502C26000E2D222E222F2258
:103012001D501B026F00CCFF30F06F00D0FF31F06B
:1030220030502626000E27222822292231502C2613
:10303200000E2D222E222F2228C029F027C028F090
:1030420026C027F0266A1D501A026F00CCFF30F00E
:103052006F00D0FF31F03050262631502722000E6B
:103062002822000E29221E5019026F00CCFF30F0D8
:103072006F00D0FF31F03050262631502722000E4B
:103082002822000E292228C029F027C028F026C0B5
:1030920027F0266A1D5019026F00CCFF30F06F0036
:1030A200D0FF31F03050262631502722000E282240
:1030B200000E29221F501A026F00CCFF30F06F0061
:1030C200D0FF31F030502C2631502D22000E2E220E
:1030D200000E2F221E501B026F00CCFF30F06F003B
:1030E200D0FF31F030502C2631502D22000E2E22EE
:1030F200000E2F221F501B026F00CCFF30F06F001A
:10310200D0FF31F03050216E3150226E236A246A92
:1031120023C024F022C023F021C022F0216A2150D2
:103122002C2622502D2223502E2224502F2226C01C
:1031320021F027C022F028C023F029C024F0190E64
:10314200A8EF18F0D8902432233222322132E82E0E
:10315200A3EF18F021502C2622502D2223502E228C
:1031620024502F2228C029F027C028F026C027F09B
:10317200266A2A502BC021F0226A2126000E222222
:10318200820E2124306EFF0E2220316EDEEF18F007
:10319200D8902C362D362E362F3629AED3EF18F096
:1031A200D5EF18F0D6EF18F02C80D89026362736B7
:1031B200283629363006D8A031062EAEE3EF18F0B5
:1031C200E5EF18F0C9EF18F0000E2A6E29AEECEF09
:1031D20018F0EEEF18F012EF19F0FF0E2614216E20
:1031E200FF0E2714226EFF0E2814236E7F0E291461
:1031F200246E2150221023102410D8B403EF19F0AA
:1032020005EF19F009EF19F0010E2A6E12EF19F00D
:103212002CA00EEF19F010EF19F012EF19F005EFD4
:1032220019F02A50D8B418EF19F01AEF19F03EEF3E
:1032320019F0010E2C26000E2D222E222F222FA055
:1032420025EF19F027EF19F03EEF19F02CC021F00D
:103252002DC022F02EC023F02FC024F024342432BB
:1032620023322232213221C02CF022C02DF023C081
:103272002EF024C02FF0304A312A31BE49EF19F026
:10328200315008E13028D8A049EF19F04BEF19F07E
:1032920055EF19F0000E2C6E000E2D6E800E2E6E64
:1032A2007F0E2F6E83EF19F031BE62EF19F03150AD
:1032B20006E13004D8B060EF19F062EF19F06EEF5A
:1032C20019F0000E2C6E000E2D6E000E2E6E000EEA
:1032D2002F6E000E256E83EF19F030C02BF0FF0E1B
:1032E2002C16FF0E2D167F0E2E16000E2F162BA05B
:1032F2007DEF19F07FEF19F080EF19F02E8ED89044
:103302002B302F6E25502F122CC019F02DC01AF021
:103312002EC01BF02FC01CF012000450800B116E47
:1033220004500424186E03AE99EF19F09BEF19F0C4
:103332009CEF19F018801850D8B4A2EF19F0A4EF3E
:1033420019F0B9EF19F01828D8A4AAEF19F0ACEFC8
:1033520019F0B4EF19F0000E016E000E026E000EAD
:10336200036E000E046E038E000E046EC1EF19F0A0
:10337200000E016E000E026E000E036E000E046E51
:103382000850800B111A08500824196E07AECCEFB2
:1033920019F0CEEF19F0CFEF19F019801950D8B407
:1033A200D5EF19F0D7EF19F0ECEF19F01928D8A4DE
:1033B200DDEF19F0DFEF19F0E7EF19F0000E056EFF
:1033C200000E066E000E076E000E086E078E000ECF
:1033D200086EF4EF19F0000E056E000E066E000E78
:1033E200076E000E086E0550061007100810D8A4CC
:1033F200FDEF19F0FFEF19F017EF1AF0000E016E52
:10340200000E026E000E036E000E046E800E03129A
:103412007F0E04121150041201C001F002C002F02A
:1034220003C003F004C004F05AEF1BF01850D8A4F4
:103432001DEF1AF01FEF1AF029EF1AF0000E016EBD
:10344200000E026E000E036E000E046E5AEF1BF0A9
:10345200195018C009F00A6A095E000E0A5A7F0E56
:103462000924126E000E0A20136E01C00DF002C074
:103472000EF003C00FF004C010F0000E016E000E3B
:10348200026E000E036E000E046E000E146E000E2D
:10349200156E000E166E000E176E000E196E8AEF74
:1034A2001AF01950D8B458EF1AF05AEF1AF071EF17
:1034B2001AF0D8900D360E360F361036D8900136E7
:1034C20002360336043617AE69EF1AF06BEF1AF0C4
:1034D2006CEF1AF00180D89014361536163617366E
:1034E20005500D5C06500E5807500F5808501058E2
:1034F200D8A07EEF1AF080EF1AF089EF1AF0178C3D
:1035020005500D5E06500E5A07500F5A0850105AB9
:10351200192A190E196490EF1AF092EF1AF052EF6D
:103522001AF00D500E100F101010D8B49BEF1AF0B5
:103532009DEF1AF0B5EF1AF01480B5EF1AF0D8909B
:10354200013602360336043617AEAAEF1AF0ACEF94
:103552001AF0ADEF1AF00180D890143615361636EF
:1035620017361206D8A0130603AEBAEF1AF0BCEF54
:103572001AF0A0EF1AF0000E196E17AEC3EF1AF090
:10358200C5EF1AF0E9EF1AF0FF0E1414096EFF0EE0
:1035920015140A6EFF0E16140B6E7F0E17140C6EA6
:1035A20009500A100B100C10D8B4DAEF1AF0DCEF45
:1035B2001AF0E0EF1AF0010E196EE9EF1AF001A00D
:1035C200E5EF1AF0E7EF1AF0E9EF1AF0DCEF1AF084
:1035D2001950D8B4EFEF1AF0F1EF1AF015EF1BF013
:1035E200010E0126000E02220322042204A0FCEF97
:1035F2001AF0FEEF1AF015EF1BF001C009F002C03D
:103602000AF003C00BF004C00CF00C340C320B3285
:103612000A32093209C001F00AC002F00BC003F0FD
:103622000CC004F0124A132A13BE20EF1BF01350F1
:1036320008E11228D8A020EF1BF022EF1BF02DEF9B
:103642001BF0000E136E1268000E016E000E026E69
:10365200000E036E000E046E13BE3AEF1BF0135001
:1036620006E11204D8B038EF1BF03AEF1BF048EF36
:103672001BF0000E136E000E126E000E016E000E95
:10368200026E000E036E000E046E000E116E12C06A
:1036920018F018A04FEF1BF051EF1BF054EF1BF086
:1036A200038E55EF1BF0039ED8901830046E0BEF7B
:1036B2001AF01200A9C02AF0AAC02BF0ABC02CF05D
:1036C200ACC02DF01AC02AF01BC02BF01CC02CF08D
:1036D2001DC02DF0810E1E6EFF0E1F6E2AC020F03F
:1036E2002BC021F02CC022F02DC023F0180E7FEF4A
:1036F2001BF0D8902332223221322032E82E7AEF88
:103702001BF020501E24286E000E1F20296E29BE99
:1037120094EF1BF0295009E1170E285CD8A094EF12
:103722001BF096EF1BF0A0EF1BF01AC01AF01BC0A3
:103732001BF01CC01CF01DC01DF063EF1CF029BE65
:10374200A5EF1BF0A7EF1BF017EF1CF028C01EF02F
:10375200FF0E1F6EFF0E206E7F0E216E000E226E78
:103762001E66B6EF1BF0BEEF1BF02234223221326E
:1037720020321F321E2EB1EF1BF01FC024F020C0DA
:1037820025F021C026F022C027F024502A141E6EF4
:1037920025502B141F6E26502C14206E27502D14EA
:1037A200216E1E501F1020102110D8A4DBEF1BF039
:1037B200DDEF1BF0DFEF1BF096EF1BF02AC01EF0CF
:1037C2002BC01FF02CC020F02DC021F0200EEFEFF7
:1037D2001BF0D890213220321F321E32E82EEAEF3F
:1037E2001BF01E501F1020102110D8B4FBEF1BF04D
:1037F200FDEF1BF005EF1CF024502A2625502B224A
:1038020026502C2227502D22241C1E6E251C1F6E92
:10381200261C206E271C216E1E502A161F502B16A6
:1038220020502C1621502D165BEF1CF02AC01EF0E2
:103832002BC01FF02CC020F02DC021F0200E27EF4E
:103842001CF0D890213220321F321E32E82E22EF95
:103852001CF01E501F1020102110D8A433EF1CF0B2
:1038620035EF1CF03FEF1CF0000E2A6E000E2B6E9F
:10387200000E2C6E000E2D6E5BEF1CF0D8902A34D9
:103882001E6E2B341F6E2C34206E2D34216E1E5072
:103892001F1020102110D8B451EF1CF053EF1CF070
:1038A2005BEF1CF0000E2A6E000E2B6E800E2C6E4B
:1038B200BF0E2D6E2AC01AF02BC01BF02CC01CF0BC
:1038C2002DC01DF012004750D96EDA6A6F007FFFDB
:1038D200F6FF200EF76E000EF86E0800F550250A6E
:1038E200D8A476EF1CF078EF1CF057EF1DF047508C
:1038F200D96EDA6ADF2A000E5B6E000E5A6E5AC06B
:103902005EF05C685D684750D96EDA6A6F007FFFCF
:10391200F6FF200EF76E000EF86E0800F5502E0A24
:10392200D8A496EF1CF098EF1CF0A6EF1CF04750BD
:10393200D96EDA6ADF2A47C007F048C008F0B1EC56
:1039420020F007C05CF008C05DF04750D96EDA6A1B
:10395200DF504F6E60003FF1F6FF200EF76E000E53
:10396200F86E08006F00D4FF4EF0C3EF1CF04F2A30
:10397200D2EF1CF06C0E4E6ED2EF1CF0000E4E6EAB
:10398200D2EF1CF04E504C0AD8B4B8EF1CF02A0A01
:10399200D8B4BBEF1CF00A0AD8B4B8EF1CF0BFEFE2
:1039A2001CF060003FF1F6FF200EF76E000EF86E7D
:1039B2000800F550660AD8A4E1EF1CF0E3EF1CF012
:1039C20051EF1DF017EF1DF04850D96EDA6A6F0003
:1039D2007CFF49F0040EDF264950D96EDA6A6F0087
:1039E20078FF4AF06F0078FF4BF06F0078FF4CF0E1
:1039F2006F0078FF4DF022EF1DF04850D96EDA6A61
:103A02006F007CFF49F0040EDF264950D96EDA6A56
:103A12006F0078FF4AF06F0078FF4BF06F0078FF7D
:103A22004CF06F0078FF4DF022EF1DF04E504C0A23
:103A3200D8B4FEEF1CF0200AD8B4E5EF1CF022EF58
:103A42001DF04750D96EDA6A4F28DF6E42EF1DF043
:103A520046C03EF04AC03FF04BC040F04CC041F07F
:103A62004DC042F060003FF1F6FF200EF76E000EEF
:103A7200F86E08006F00D4FF43F011EC10F06BEF0A
:103A82001DF060003FF1F6FF200EF76E000EF86E9B
:103A92000800F550660AD8B429EF1DF051EF1DF069
:103AA2004750D96EDA6ADF2A6BEF1DF04750D96EA4
:103AB200DA6A6F007FFFF6FF200EF76E000EF86ED7
:103AC2000800F550016E026A46C003F00CEC21F0CA
:103AD20051EF1DF01200CDEC23F0B1EC23F02BECF2
:103AE20024F0000E0001A56F000EA66F000EA76F56
:103AF200000EA86F3E01F881F8B182EF1DF084EF4D
:103B02001DF07DEF1DF0EF516F00C0FB99F0000139
:103B12009A6B99C09AF0996B9911A36F9A51A46FFD
:103B2200A3C001F0A4C002F0000E02BEFF0E036E9D
:103B3200046E010E53EC1EF001C019F002C01AF01F
:103B420003C01BF004C01CF0000E1D6E000E1E6EA2
:103B5200A00E1F6E3A0E206E67EC17F019C09BF094
:103B62001AC09CF01BC09DF01CC09EF0A5C09FF027
:103B7200A6C0A0F0A7C0A1F0A8C0A2F09BC015F0FB
:103B82009CC016F09DC017F09EC018F0000E116E7A
:103B9200000E126EA00E136E400E146EF4EC22F0A4
:103BA20011C019F012C01AF013C01BF014C01CF09F
:103BB200000E1D6E000E1E6E480E1F6E430E206E0E
:103BC20067EC17F019C0A5F01AC0A6F01BC0A7F049
:103BD2001CC0A8F0000E326EC00E336E790E346E29
:103BE200440E356E9FC036F0A0C037F0A1C038F049
:103BF200A2C039F0B0EC1FF0D8B002EF1EF004EF13
:103C02001EF01FEF1EF0A5C032F0A6C033F0A7C011
:103C120034F0A8C035F0000E366E000E376E7A0E04
:103C2200386E440E396EB0EC1FF0D8B01BEF1EF0A8
:103C32001DEF1EF01FEF1EF02BEC24F0B70E546E9A
:103C42000E0E556EA5C056F0A6C057F0A7C058F08C
:103C5200A8C059F079EC23F0B70E016E130E026E74
:103C620023EC22F0040E0A6EB70E0B6E0C6A020EE3
:103C720059EC23F0000E0A6E010E0B6E0B50D8A405
:103C8200200E0C6E010E59EC23F0820E0001996F8A
:103C9200DD0EE82EFED7992FFCD700D07BEF1DF06A
:103CA200FEEFFFF0096E0950D8B45AEF1EF05CEF38
:103CB2001EF07EEF1EF004BE63EF1EF061EF1EF0F9
:103CC2007EEF1EF001C005F002C006F003C007F04F
:103CD20004C008F0051E061E071E081E052A000E57
:103CE20006220722082205C00BF006C00CF007C00E
:103CF2000DF008C00EF086EF1EF001C00BF002C0FE
:103D02000CF003C00DF004C00EF0015002100310BD
:103D12000410D8A48FEF1EF091EF1EF09BEF1EF05F
:103D2200000E016E000E026E000E036E000E046E97
:103D32002CEF1FF0960E0A6EA5EF1EF00A2AD890FD
:103D42000E320D320C320B32000E0B14056E000EC9
:103D52000C14066E000E0D14076EFE0E0E14086E85
:103D62000550061007100810D8A4BAEF1EF0BCEFD9
:103D72001EF09FEF1EF0CAEF1EF00A2A010E0B265C
:103D8200000E0C220D220E22D8900E320D320C3271
:103D92000B32000E0B14056E000E0C14066E000E94
:103DA2000D14076EFF0E0E14086E05500610071054
:103DB2000810D8A4DFEF1EF0E1EF1EF0BEEF1EF0F8
:103DC200E9EF1EF00A06D8900B360C360D360E3689
:103DD2000DBEEEEF1EF0F0EF1EF0F8EF1EF0020E39
:103DE2000A60F6EF1EF0F8EF1EF0E3EF1EF00AB0E5
:103DF200FDEF1EF0FFEF1EF000EF1FF00D9ED890BA
:103E02000A320AC005F0066A076A086A05C008F0A5
:103E1200076A066A056A05500B1206500C12075013
:103E22000D1208500E120950D8B41AEF1FF01CEFF1
:103E32001FF024EF1FF004BE23EF1FF021EF1FF04D
:103E420024EF1FF00E8E0BC001F00CC002F00DC06B
:103E520003F00EC004F01200033404340A6E0A5058
:103E6200D8A436EF1FF038EF1FF042EF1FF0000E1C
:103E7200016E000E026E000E036E000E046EAFEFB6
:103E82001FF001C005F002C006F003C007F004C035
:103E920008F0200E52EF1FF0D89008320732063297
:103EA2000532E82E4DEF1FF00550096E038EFF0E0E
:103EB2000116FF0E0216FF0E0316000E0416960ED2
:103EC2000A5E0ABE69EF1FF067EF1FF07FEF1FF077
:103ED2000A50800A970FD8B071EF1FF073EF1FF0EE
:103EE20075EF1FF038EF1FF0D89004320332023220
:103EF20001320A3E75EF1FF097EF1FF01F0E0A64A2
:103F020085EF1FF087EF1FF08FEF1FF038EF1FF0E4
:103F1200D89001360236033604360A060A50D8A46F
:103F220095EF1FF097EF1FF089EF1FF00950D8B4FB
:103F32009DEF1FF09FEF1FF0A7EF1FF0041E031E5F
:103F4200021E016C000E02220322042201C001F0B3
:103F520002C002F003C003F004C004F01200000E1D
:103F620032143A6E000E33143B6E800E34143C6EE3
:103F72007F0E35143D6E3A503B103C103D10D8A4D4
:103F8200C5EF1FF0C7EF1FF0CFEF1FF0000E326E2C
:103F9200000E336E000E346E000E356E000E3614B7
:103FA2003A6E000E37143B6E800E38143C6E7F0E54
:103FB20039143D6E3A503B103C103D10D8A4E4EF4A
:103FC2001FF0E6EF1FF0EEEF1FF0000E366E000E50
:103FD200376E000E386E000E396E35AEF3EF1FF0FD
:103FE200F5EF1FF0FEEF1FF0326C331ED8B0332A0C
:103FF200341ED8B0342A800E355639AE03EF20F085
:1040020005EF20F00EEF20F0366C371ED8B0372ABD
:10401200381ED8B0382A800E3956000E321A000ED9
:10402200331A000E341A800E351A000E361A000E9C
:10403200371A000E381A800E391A3650325C375051
:1040420033583850345839503558D8B02BEF20F007
:104052002DEF20F030EF20F0D89031EF20F0D88013
:104062001200ADC00BF0AEC00CF0AFC00DF0B0C08E
:104072000EF001C00BF002C00CF003C00DF004C042
:104082000EF00BC005F00CC006F00DC007F00EC01C
:1040920008F0180E52EF20F0D8900832073206329C
:1040A2000532E82E4DEF20F00550096E0A6A0950DC
:1040B2000A10D8A45FEF20F061EF20F081EF20F02A
:1040C200D8900B34056E0C34066E0D34076E0E3428
:1040D200086E0550061007100810D8A473EF20F0E0
:1040E20075EF20F07BEF20F0000E026E020E016EE3
:1040F200B0EF20F0000E026E030E016EB0EF20F062
:1041020009280A10D8A488EF20F08AEF20F0ACEF3B
:1041120020F00BC005F00CC006F00DC007F00EC079
:1041220008F0090ED8900536063607360836E82E0E
:1041320093EF20F00550061007100810D8B4A4EF32
:1041420020F0A7EF20F0010EA8EF20F0000E016E84
:10415200026AB0EF20F0000E026E040E016E120031
:10416200000E0B6E000E0A6E0750D96EDA6A6F00EF
:104172007FFFF6FF200EF76E000EF86E0800F55076
:104182002A0AD8A4C7EF20F0C9EF20F0F1EF20F0FF
:104192000750D96EDA6ADF2A0850D96EDA6A020E3F
:1041A200DF26DF5CD96EDA6A6F0078FF0AF06F00F3
:1041B20078FF0BF007EF21F00AC001F00BC002F00C
:1041C200000E046E0A0E036EE4EC23F00950012483
:1041D2000A6E000E02200B6E0750D96EDA6ADF2AD1
:1041E2000750D96EDA6A6F007FFFF6FF200EF76E76
:1041F200000EF86E0800F550D00F096E090E096422
:1042020005EF21F007EF21F0DDEF20F00AC007F003
:104212000BC008F012000350D8B412EF21F014EFD3
:1042220021F01CEF21F00350D8A41AEF21F01CEF6B
:1042320021F021EF21F001502FEC24F061EF21F069
:104242000350D96EDA6A0A0ED926DE50DE10D8B4CF
:104252002DEF21F02FEF21F048EF21F00350D96E1E
:10426200DA6A0A0ED9260350E16EE26A030EE126EB
:10427200DE50E65CE650800A086EDE50800A08587E
:10428200D8B046EF21F048EF21F061EF21F0035062
:10429200D96EDA6A030ED926DF50046E0350D96E46
:1042A200DA6ADF500424D96EDA6A600007F0DFFFB1
:1042B2000350D96EDA6A030ED926DE2A000EDD22F9
:1042C2001200000E0114096E000E02140A6E800E16
:1042D20003140B6E7F0E04140C6E09500A100B109F
:1042E2000C10D8A477EF21F079EF21F081EF21F0C3
:1042F200000E016E000E026E000E036E000E046EC2
:10430200000E0514096E000E06140A6E800E0714C4
:104312000B6E7F0E08140C6E09500A100B100C1055
:10432200D8A496EF21F098EF21F0A0EF21F0000E33
:10433200056E000E066E000E076E000E086E05502A
:1043420001180FE1065002180CE10750031809E1A9
:1043520008500418D8B4B0EF21F0B2EF21F0B5EF55
:1043620021F0D890B6EF21F0D8801200D2EF21F0E0
:10437200600023F0F6FF600027F0F7FF000EF86EF2
:104382001F0EF76403D00800F55007D06F00DBFF63
:10439200E1FF6F00DFFFE2FFE7500DEC24F0084A77
:1043A200092A600023F0F6FF600027F0F7FF000EF5
:1043B200F86E1F0EF76403D00800F55007D06F00A7
:1043C200DBFFE1FF6F00DFFFE2FFE7500009D8A447
:1043D200EDEF21F0EFEF21F0B9EF21F0120013BE63
:1043E200F7EF21F0F5EF21F0FBEF21F0000E136E55
:1043F200000E126E000E166E000E156E0BEF22F0FE
:10440200000E026E200E016E0FC003F00CEC21F0C4
:10441200154A162A1250155C1650800A146E135053
:10442200800A1458D8A018EF22F01AEF22F001EFF8
:1044320022F010C009F011C00AF00FC00BF039ECE5
:1044420023F01200000E046E000E036E2BEF22F01A
:10445200034A042A01500324D96EDA6ADF50D8A431
:1044620035EF22F037EF22F029EF22F03CEF22F075
:10447200034A042A022A60000BF0F6FF200EF76EB0
:10448200000EF86E01500324D96EDA6A08006F003C
:10449200D7FFDFFFDF50D8A451EF22F053EF22F015
:1044A20039EF22F0120003C00AF004C00BF001C081
:1044B20008F002C009F073EF22F060002BF0D9FF80
:1044C20060002FF0DAFFDF50076E0A4A0B2A600005
:1044D20023F0D9FF600027F0DAFF60001FF0DFFF52
:1044E200084A092A0506D8A00606052806E1062874
:1044F200D8A47EEF22F080EF22F05EEF22F01200CD
:1045020004BE86EF22F088EF22F092EF22F001C083
:1045120001F002C002F003C003F004C004F0ABEFEC
:1045220022F001C005F002C006F003C007F004C08B
:1045320008F0051E061E071E081E052A000E06228A
:104542000722082205C001F006C002F007C003F0EE
:1045520008C004F01200000E046E000E036EC5EFD8
:1045620022F0000E066E000E056E054A062A06505F
:1045720009E1A50E055CD8A0C1EF22F0C3EF22F03D
:10458200B6EF22F0034A042A0150035C0250045899
:10459200D8A0CEEF22F0D0EF22F0B2EF22F012003C
:1045A20001C005F002C006F0032A0304046E600095
:1045B20013F0F6FF200EF76E000EF86E600017F093
:1045C200D9FF60001BF0DAFF054A062A08006F00D7
:1045D200D7FFDFFFDF50D8A4F1EF22F0F3EF22F094
:1045E200D5EF22F01200000E151A000E161A000E58
:1045F200171A800E181A11C001F012C002F013C06F
:1046020003F014C004F015C005F016C006F017C080
:1046120007F018C008F007EC15F001C011F002C055
:1046220012F003C013F004C014F0120051C053F092
:1046320023EF23F050C046F0530E476E52C048F0AD
:1046420064EC1CF060004FF1F6FF200EF76E000ED6
:10465200F86E0800F5500009D8A432EF23F034EFC9
:1046620023F01BEF23F0000E516E000E506E12006D
:10467200000E0E6E000E0D6E48EF23F00CC001F01E
:10468200026A0BC003F00CEC21F00D4A0E2A0D5009
:104692000924D96E0E500A20DA6EDF500C6E0C50CF
:1046A200D8A456EF23F058EF23F03FEF23F0120087
:1046B2000D6E020E0D6060EF23F062EF23F06BEFE0
:1046C20023F00A500F0B80090E6E0E501CEC24F0E2
:1046D20072EF23F00A500F0BC0090E6E0E501CEC45
:1046E20024F00BC008F00CC009F0B7EC21F0120066
:1046F200560E00018C6F54C08DF0000E916F000EAB
:10470200906F000E986F000E976F8D0E506E55C011
:1047120051F08C0E526E17EC23F05450000190258C
:10472200D96EDA6ADF6A1200015002100310041017
:10473200D8B49EEF23F0A0EF23F0A8EF23F0000EF1
:10474200011A000E021A000E031A800E041A01C08A
:1047520001F002C002F003C003F004C004F0120032
:104762003E01F851F30B0409F86FF899C2803A013F
:104772004081000E3E01F16F000EFF6F000EEF6FE1
:10478200000EF06F000EF66F000EF76F000EF36F63
:10479200000EF46FF88F1200000E026E0F0E016E03
:1047A200ACEC22F0000EC36E000EC56E010E1CECC6
:1047B20024F0380E1CEC24F00C0E1CEC24F0060E37
:1047C2001CEC24F01200015003026F00CCFF05F034
:1047D2006F00D0FF06F001500402F350062602508B
:1047E2000302F350062605C001F006C002F01200D3
:1047F20000EE00F1500EEE6AE806FDE100EEA9F0CF
:10480200180EEE6AE806FDE15E6A5D6A5C6A5B6A42
:104812005A6A00016CEF1DF0076E60001FF0BBFFCB
:10482200BD80BD820000BD92000E026E010E016EBF
:10483200ACEC22F01200076E60001FF0BBFFBD90CF
:10484200BD820000BD92000E026E030E016EACEC42
:0E48520022F01200010E1CEC24F012001200E5
:020000040001F9
:04FFFC00F9EF23F006
:020000040030CA
:0A000000F8FFFFFF9FFFFFFFFFFF67
:00000001FF
