:0400000010EF00F00D
:100020003F01CD6A3F01BD6A3A01706B3F01C56A6D
:100030003F01CB6A3F01BB6A3A01506B3F010F0E93
:10004000C36E0001000E106E37EC00F041EC00F0C2
:1000500041EC00F0000ECBB0010FCBB2020FFD0F50
:10006000F1E0010F1FE0010F17E024EF00F00F0E89
:10007000F76E000E1024F66E08006F00D7FFCDFF5C
:100080001200000E116E126E136E112E45EF00F06D
:10009000122E45EF00F012001050E82A0F0B106EE0
:1000A00024EF00F01050E8060F0B106E24EF00F064
:1000B000146A156A010ECB6EF00ECB14E83A1426C2
:1000C000020ECB6EF00ECB141426030ECB6EF00E88
:1000D000CB14E83A1526040ECB6EF00ECB14152681
:0400E00012001200F8
:100F0000E721CB6B2D6EEE27EF6FAFECC8E9CE8EED
:020000040030CA
:0A000000F8FFFFFF9FFFFFFFFFFF67
:00000001FF
