:0400000010EF00F00D
:10002000206AE86A80EC80F88AEC80F8CB6A7CD899
:0A003000600083F0CDFF17EF00F031
:020000040030CA
:0A000000F8FFFFFF9FFFFFFFFFFF67
:020000040031C9
:100100003F01CD6A3F01BD6A3A01706B3F01000EAD
:10011000C56E12003F01CB6A3F01BB6A3A01506BCA
:100120003F01F80EC36E12002051CB80CBB6010EFA
:10013000CBB8040ECBBE070ECBBC0A0ECB90CB8245
:10014000CBB6020ECBB8050ECBBE080ECBBC000E54
:10015000CB92CB84CBB6030ECBB8060ECBBE090E2A
:0A016000CBBC0B0ECB94206F1200F5
:00000001FF
