:040000000DEF00F010
:0400080073EF13F08F
:06001800FF005DEF15F092
:1020000000822500000000000000402900000000C0
:10201000B42B0000000000000000000000000000E1
:1020200000000000000000000000000000000000B0
:1020300000000000000000000000000000282B004D
:10204000062B00E42A0000000048656C6C6F2057E6
:102050006F726C642E2E2E2E0D0A0025640D0A0060
:01206000007F
:102062002350D96EDA6A6F007FFFF6FF200EF76EFB
:10207200000EF86E0800F550250AD8A443EF10F0C0
:1020820045EF10F008EF11F02350D96EDA6ADF2A1B
:10209200000E4C6E000E4B6E4BC051F04D684E68F8
:1020A2002350D96EDA6ADF50276E60009FF0F6FF88
:1020B200200EF76E000EF86E0800F550640AD8B4D0
:1020C20065EF10F067EF10F078EF10F060009FF00E
:1020D200F6FF200EF76E000EF86E0800F550690A42
:1020E200D8A476EF10F078EF10F002EF11F0245040
:1020F200D96EDA6A020EDF26DF5CD96EDA6A6F0009
:1021020078FF28F06F0078FF29F02350D96EDA6A41
:102112002728DF6E200E2C6E29BE92EF10F095EF6D
:1021220010F0010E96EF10F0000E266E2C062C50C9
:10213200600FD96EDA6A28C017F029C018F0000EB5
:102142001A6E0A0E196E1BEC13F017C01DF018C0A0
:102152001EF029EC15F01D50300FDF6E28C005F07F
:1021620029C006F0000E086E0A0E076EFDEC11F093
:1021720005C028F006C029F028502910D8B4C4EFB1
:1021820010F0C6EF10F0CEEF10F02C50D8A4CCEF28
:1021920010F0CEEF10F097EF10F02C50D8B4D4EF2F
:1021A20010F0D6EF10F0F7EF10F02650D8B4DCEFB5
:1021B20010F0DEEF10F0F7EF10F02C062C50600F4D
:1021C200D96EDA6A2D0EDF6EF7EF10F02C50600F29
:1021D200D96EDA6ADF50256E2550086E096A21C071
:1021E2000AF022C00BF091EC11F02C2A200E2C18D0
:1021F200D8A4FEEF10F000EF11F0E7EF10F01EEFA1
:1022020011F02350D96EDA6ADF2A1EEF11F0235043
:10221200D96EDA6A6F007FFFF6FF200EF76E000EAE
:10222200F86E0800F550086E096A21C00AF022C053
:102232000BF091EC11F002EF11F012005450020D6C
:10224200F350800FD96EDA6ADE6ADD6A3D01E1A7DA
:102252002DEF11F02FEF11F04EEF11F05450020D4F
:10226200F350800FD96EDA6A0001DF823F504010CE
:102272004110D8B43FEF11F041EF11F04EEF11F0E1
:1022820002D84EEF11F00500FA6E3F50FD6E40503D
:10229200FE6E4150FF6EFA5012003D01E1A354EF71
:1022A20011F056EF11F075EF11F05450020DF3508A
:1022B200800FD96EDA6A0001DF843C503D103E1077
:1022C200D8B466EF11F068EF11F075EF11F002D893
:1022D20075EF11F00500FA6E3C50FD6E3D50FE6E3A
:1022E2003E50FF6EFA5012006F0040F701F0542882
:1022F200070B026E53500218D8A482EF11F084EF3C
:1023020011F086EF11F090EF11F05450900FD96E4A
:10231200DA6A600007F0DFFF02C054F0522A1200AE
:102322000A500B10D8B498EF11F09AEF11F0A3EF06
:1023320011F00A500B10D8A4A1EF11F0A3EF11F085
:10234200A8EF11F00850A5EC15F0FCEF11F020EE0B
:102352000AF00A50D9260B50DA22DE50DE10D8B429
:10236200B5EF11F0B7EF11F0D2EF11F020EE0AF055
:102372000A50D9260B50DA2210EE03F00A50E12659
:102382000B50E222DE50E65CE650800A106EDE5010
:10239200800A1058D8B0D0EF11F0D2EF11F0FCEF54
:1023A20011F020EE03F00A50D9260B50DA226F000A
:1023B20078FF0CF06F0074FF0DF060002BF0D9FF76
:1023C20060002FF0DAFF6F0078FF0EF06F0074FFED
:1023D2000FF00C500E24D96E0D500F20DA6E6000F3
:1023E20023F0DFFF20EE03F00A50D9260B50DA2249
:1023F200DE2A000EDD221200000E0A6E08BE06EF73
:1024020012F004EF12F00CEF12F0076C081ED8B0B5
:10241200082A010E0A6E06BE13EF12F011EF12F037
:1024220019EF12F0056C061ED8B0062A010E0A1A20
:10243200000E0C6E000E0B6E07500810D8B424EF7D
:1024420012F026EF12F04EEF12F0010E096E2EEF8F
:1024520012F0D89007360836092A08AE33EF12F088
:1024620035EF12F02AEF12F0D8900B360C360750E7
:10247200055C08500658D8A041EF12F043EF12F065
:1024820048EF12F00750055E0850065A0B80D890AC
:1024920008320732092E35EF12F00A50D8B454EF41
:1024A20012F056EF12F05AEF12F00B6C0C1ED8B06D
:1024B2000C2A0BC005F00CC006F01200000EBA6E1A
:1024C200000EBB6E000EBC6E000EBD6E000EBE6E28
:1024D200C268C368C468FE0EC56E070EC66E3A01B6
:1024E200406950696069FC0E706F070E806F000EC4
:1024F200416F000E516F000E616F000E716F000E82
:10250200816F000E426F000E526F000E626F000E5E
:10251200726F000E826F4369536963697369070EB4
:10252200836F44695469646974690F0E846F000E85
:102532005A6F000E5B6F000E6A6F000E6B6F000E1B
:102542007A6F000E7B6F190EE86F160E186F000E71
:10255200456F000E466F000E476F000E556F000E5E
:10256200566F000E576F000E656F000E666F000EFD
:10257200676F000E856F000E866F000E876F120068
:10258200390196953E0E0001A36F220EA46F000E34
:10259200A56F39019697860E0001A66F2A0EA76FC6
:1025A200000EA86F000E3D01D06F000ED26F000E1C
:1025B200D46F000ED66F000ED86FB00EDA6F800E99
:1025C200DB6F000EDC6F820EDD6F060EDE6F2E0EED
:1025D200DF6F000EE06F800EE16F000EE26F080EFB
:1025E200056E2C0E066E000E076E94EC15F0060EAC
:1025F200056E2C0E066E000E076E83EC15F0000EB3
:10260200056E000E066E000E076E72EC15F0000EDF
:10261200506E000E4F6E000E576E000E566E080E74
:10262200556E000E546E000E536E000E526E39013E
:1026320096851200000E1C6E18BE24EF13F022EFD6
:1026420013F02AEF13F0176C181ED8B0182A010ED7
:102652001C6E1ABE31EF13F02FEF13F035EF13F0AB
:10266200196C1A1ED8B01A2A19501A10D8B43CEF95
:1026720013F03EEF13F062EF13F0010E1B6E46EF04
:1026820013F0D89019361A361B2A1AAE4BEF13F0F4
:102692004DEF13F042EF13F01950175C1A5018580F
:1026A200D8A056EF13F058EF13F05CEF13F0195067
:1026B200175E1A50185AD8901A3219321B2E4DEF43
:1026C20013F01C50D8B468EF13F06AEF13F06EEFFA
:1026D20013F0176C181ED8B0182A17C017F018C0BC
:1026E20018F012006F00E8FF03F06F00ECFF04F037
:1026F200390196A77FEF13F081EF13F098EF13F0F3
:10270200A6A786EF13F088EF13F098EF13F002D824
:1027120096EF13F00500FA6E0001A651FD6EA75167
:10272200FE6EA851FF6EFA501200B4EF13F096A598
:102732009DEF13F09FEF13F0B4EF13F0A6A5A4EFF3
:1027420013F0A6EF13F0B4EF13F002D8B4EF13F0C6
:102752000500FA6E0001A351FD6EA451FE6EA55153
:10276200FF6EFA501200600013F0FBFF60000FF0E2
:10277200FAFF1100000E256E000E246E000E236E6D
:10278200000E226E1F501D5C1E50800A216E2050CA
:10279200800A2158D8B0D0EF13F0D2EF13F0DEEF59
:1027A20013F01DC024F01EC025F0010E1F24226E5E
:1027B200000E2020236EE8EF13F0010E1F24246E7A
:1027C200000E2020256E1DC022F01EC023F035EC25
:1027D20014F011C017F012C018F02450225C196EC8
:1027E200255023581A6E1BEC13F0245017241D6E2B
:1027F200255018201E6E1200E5EC15F0C1EC12F007
:10280200000E056E000E066E0DEC15F005C009F007
:1028120006C00AF0B4EC15F0D28E490E326EC1EC4D
:1028220015F05B0E326E000E1E6E010E1D6E000E56
:10283200206E640E1F6EBBEC13F01DC033F01EC081
:1028420034F0C1EC15F0520E0001AA6F2B0EA96FE5
:10285200000EE82EFED7A92FFCD7AA2FFAD7000028
:1028620012EF14F00DEF00F058C005F059C006F059
:102872005AC007F05BC008F02D0E096E7F0E0A6E7B
:10288200950E0B6E4C0E0C6E6BEC14F0010E0524C3
:10289200586E000E0620596E000E07205A6E000E6A
:1028A20008205B6E58C013F059C014F05AC015F0DE
:1028B2005BC016F0120E63EF14F0D8901632153288
:1028C20014321332E82E5EEF14F013C011F014C06C
:1028D20012F01200000E0D6E000E0E6E000E0F6E44
:1028E200000E106E05A078EF14F07AEF14F082EF6C
:1028F20014F009500D260A500E220B500F220C50D4
:102902001022D89009360A360B360C36D890083287
:102912000732063205320550061007100810D8A4F7
:1029220095EF14F097EF14F073EF14F00DC005F06B
:102932000EC006F00FC007F010C008F01200066EBD
:10294200390196B7A7EF14F0A9EF14F0AEEF14F027
:1029520060001BF0D2FDC4EF14F05550D8B4B4EFB0
:1029620014F0B6EF14F0C4EF14F05750980FD96E6C
:10297200DA6A60001BF0DFFF5728070B056E05C0FF
:1029820057F096975506968712002FC031F0D4EF74
:1029920014F02DC021F02EC022F0310E236E30C073
:1029A20024F031EC10F06000C7F0F6FF200EF76E55
:1029B200000EF86E0800F5500009D8A4E3EF14F0F9
:1029C200E5EF14F0CAEF14F0000E2E6E000E2D6E1D
:1029D2001200D29A3901A191D280000E056E000E2A
:1029E200066E000E076EFCEC15F03901A591D2823D
:1029F200000E056E000E066E000E076EF5EC15F069
:102A02003901A79BD284000E056E000E066E000EE1
:102A1200076EEEEC15F0120005500610D8B414EF54
:102A220015F016EF15F024EF15F0600017F0D9FF3E
:102A320060001BF0DAFFFF0EDE6EFF0EDE6EFF0E91
:102A4200DE6EFF0EDD6E0568066807680868120014
:102A52001EBE2EEF15F030EF15F036EF15F01DC04B
:102A62001DF01EC01EF042EF15F01DC01FF01EC06B
:102A720020F01F1E201E1F4A202A1FC01DF020C04A
:102A82001EF01200080E556049EF15F04BEF15F0DD
:102A92005AEF15F05650980FD96EDA6ADF503D01A1
:102AA200D26F5628070B016E01C056F0552A5CEF13
:102AB20015F039019697120000EE60F0430EEE6AAF
:102AC200E806FDE100EE36F0260EEE6AE806FDE1CC
:102AD200080ED56E000ED66E000ED76E0001FDEF09
:102AE20013F0055006100710D8B47AEF15F07CEFFA
:102AF20015F082EF15F005C0A0F006C0A1F007C0E6
:102B0200A2F01200055006100710D8B48BEF15F092
:102B12008DEF15F093EF15F005C03CF006C03DF0C7
:102B220007C03EF01200055006100710D8B49CEF03
:102B320015F09EEF15F0A4EF15F005C03FF006C0AA
:102B420040F007C041F01200076EDAEC15F0000900
:102B5200D8B4AEEF15F0B0EF15F0A6EF15F00750B0
:102B6200A0EC14F01200FF0E09240B6EFF0E0A20D7
:102B72000C6E0BC058F00CC059F05A6A5B6A120016
:102B8200330E356E000E2D6E000E2E6E32C02FF0FB
:102B9200350E306EC6EC14F01200600E3901D96F9A
:102BA200000EDB6F000EDD6F080EDF6F000EDE6FB2
:102BB20012005550D8A4E0EF15F0E3EF15F0010E26
:102BC200E4EF15F0000E1200CEEC15F05FEC12F0FF
:102BD200C1EC12F0EAEC14F0120005C042F006C09B
:102BE20043F007C044F0120005C045F006C046F0AD
:102BF20007C047F0120005C048F006C049F007C000
:082C02004AF01200120012005A
:020000040030CA
:0A0000008FFFF7FF9FFFFFFFFFFFD8
:00000001FF
