:0400000057EF20F0A6
:022000000000DE
:104008002B102B102B102B102B102B102B102B10D0
:1040180056102B102B102B102B102B102B102B1095
:104028002B102B102B102B102B102B102B102B10B0
:104038002B102B102B102B102B102B102B102B10A0
:104048002B102B102B102B102B102B102B102B1090
:104058002B102B102B102B102B102B102B102B1080
:104068002B102B102B102B102B102B102B102B1070
:104078002B102B102B102B102B102B102B102B1060
:104088002B102B102B102B102B102B102B102B1050
:104098002B102B102B102B102B102B102B102B1040
:1040A8002B102B10FF0065EF21F0E6EC20F0000E3E
:1040B800216E000E206E3BEC21F0216ECB8A060E9D
:1040C800136E130E126EAE0EE82EFED7122EFCD70C
:1040D800132EFAD711EC21F0206E2150100DF35059
:1040E80020241F6E120E1F18D8A47DEF20F07FEF3A
:1040F80020F08EEF20F0CA8A060E136E130E126E91
:10410800AE0EE82EFED7122EFCD7132EFAD7CA9A77
:104118009BEF20F0CD8E080E136E9D0E126E060ECC
:10412800E82EFED7122EFCD7132EFAD7CD9ECB9AA7
:10413800060E136E130E126EAE0EE82EFED7122E5A
:0E414800FCD7132EFAD75BEF20F057EF20F0D4
:10415800820E016EDE0EE82EFED7012EFCD7390145
:10416800A1A1B9EF20F0BBEF20F0E5EF20F0000EA1
:10417800036ECDAEC2EF20F0C6EF20F0016A012A2F
:10418800C7EF20F0016A01320132CD5001187F0BD0
:104198000118CD6E020E026E450E016EAA0EE82EB3
:1041A800FED7012EFCD7022EFAD7032A010E03648C
:1041B800E0EF20F0E2EF20F0BDEF20F03901A1910F
:1041C800CD9E1100000EC56E000E3A01706F000EF4
:1041D800BD6E000ECD6E000EC26E000E406F000E5A
:1041E800BA6E000ECA6E0F0EC36E000E506F000E30
:1041F800BB6E000ECB6ED28AD28ED28CD290390191
:1042080081919181A191000ED76E400ED66E080E55
:10421800D56E000E82EC21F01200000E116E000E19
:1042280082EC21F022EF21F0CBA61DEF21F01FEF49
:1042380021F022EF21F011503AEF21F0CBB427EF13
:1042480021F029EF21F018EF21F0112A115082EC0A
:1042580021F0060E106E130E0F6EAE0EE82EFED76E
:104268000F2EFCD7102EFAD722EF21F01200000EE5
:10427800116E000E82EC21F04CEF21F0CBA647EF37
:1042880021F049EF21F04CEF21F0115064EF21F0BB
:10429800CBB251EF21F053EF21F042EF21F0112A78
:1042A800115082EC21F0060E106E130E0F6EAE0E3A
:1042B800E82EFED70F2EFCD7102EFAD74CEF21F0A0
:1042C80012003C0EF66E430EF76E000EF86E00EE0E
:1042D80014F010EE0BF009006F00D7FFEEFFE55069
:1042E800E150F9E1216A206A1F6A080ED56E400E76
:1042F800D66E000ED76E000159EF20F00E6E090E33
:104308000E6489EF21F08BEF21F08DEF21F0000E84
:104318000E6E20EE14F010EE04F0090E6F006FFF21
:10432800E3FFE806FBE20E50040FD96EDA6ADF50AD
:0F433800CD6E12003F065B4F666D7D077F6F12E3
:020000040030CA
:0A000000F8FFFFFF9FFFFFFFFFFF67
:00000001FF
