:0400000057EF20F0A6
:022000000000DE
:104008002B102B102B102B102B102B102B102B10D0
:1040180046102B102B102B102B102B102B102B10A5
:104028002B102B102B102B102B102B102B102B10B0
:104038002B102B102B102B102B102B102B102B10A0
:104048002B102B102B102B102B102B102B102B1090
:104058002B102B102B102B102B102B102B102B1080
:104068002B102B102B102B102B102B102B102B1070
:104078002B102B102B102B102B102B102B102B1060
:104088002B102B102B102B102B102B102B102B1050
:104098002B102B102B102B102B102B102B102B1040
:1040A8002B102B10FF00CCEF20F0C368000EBB6E66
:1040B800000ECB6E000E3A01506F000EC56E000E5A
:1040C800BD6E000ECD6E000E706F5169BDEC20F014
:1040D800CDA271EF20F075EF20F0046A042A76EF84
:1040E80020F0046A0446CD500418FD0B0418CD6E68
:1040F8000B0E056E260E046E5E0EE82EFED7042EFD
:0E410800FCD7052EFAD76CEF20F057EF20F011
:104118003901A1A192EF20F094EF20F0BCEF20F03C
:10412800000E036ECDA09BEF20F09FEF20F0016AF8
:10413800012AA0EF20F0016ACD500118FE0B0118EA
:10414800CD6E020E026E450E016EAA0EE82EFED747
:10415800012EFCD7022EFAD7032A130E0364B7EFF9
:1041680020F0B9EF20F096EF20F03901A191CD9021
:104178001100D28AD28ED28CD2803901818191816C
:10418800A191000ED76E400ED66E080ED56E1200A5
:10419800080ED56E400ED66E000ED76E000159EF90
:0241A80020F005
:020000040020DA
:10000000FFFFFFFFFFFFFFFFFFFFFFFFFFFFFFFF00
:020000040030CA
:0A000000F8FFFFFF9FFFFFFFFFFF67
:00000001FF
