:04000000FEEFFFF020
:1020000000003901DC8D020EDF6F000E3A01506FC7
:10201000000EC36E000ECB6EC2EC10F003EC11F09C
:10202000D8EC10F0E6EC10F0010E026E900E016E8E
:10203000AAEC10F0400E016E9C0E026E000E036EB4
:10204000000E046EAB500E6E0F6AD8900E360F362F
:10205000D8900E360F36040E0E26000E0F220EC03C
:1020600005F00FC006F0000E06BEFF0E076E086EEC
:1020700058EC10F001C010F002C011F0AC380F0B9A
:102080000F0B136EF2EC10F0126E12B002D0CB9464
:1020900001D0CB843901A4A550EF10F052EF10F01D
:1020A00042EF10F0A495CB7042EF10F0FEEFFFF07E
:1020B000000E096E000E0A6E000E0B6E000E0C6E06
:1020C0000550061007100810D8B469EF10F06BEF38
:1020D00010F0A1EF10F0010E0D6E75EF10F0D8901A
:1020E00005360636073608360D2A08AE7AEF10F0A8
:1020F0007CEF10F06FEF10F0D89009360A360B36EF
:102100000C360550015C0650025807500358085021
:102110000458D8A08EEF10F090EF10F099EF10F067
:102120000550015E0650025A0750035A0850045ADF
:102130000980D89008320732063205320D2E7CEF26
:1021400010F009C001F00AC002F00BC003F00CC08F
:1021500004F01200FF0E0116030E02167AA8B3EF68
:1021600010F0B5EF10F0BCEF10F0060ED89001366D
:102170000236E82EB6EF10F00250796E600007F0DC
:1021800078FF1200010EAE6E000EAD6E000EAF6E47
:10219000AB68000EAA6E3901A495B00EAC6E4A0E63
:1021A000B96E8C0E7A6E010E796E990E786E1200F1
:1021B000550E3A01BF6FAA0EBF6FBF910A0E0B6F8B
:1021C000550EBF6FAA0EBF6FBF8112008C0E7A6EC4
:1021D000000E796E0F0E786E3F015E51F30B04090D
:1021E0005E6F12007ABAF7EF10F0FAEF10F0010EFE
:1021F000FBEF10F0000E1200136A126A116A106AE7
:10220000000101EF10F006EC11F01200AC8E12008C
:020000040001F9
:04FFFC00FCEF10F016
:020000040030CA
:0A000000F8FFFFFF9FFFFFFFFFFF67
:00000001FF
