:04000000FEEFFFF020
:1020000000001250800B1B6E12501224216E11AE74
:102010000CEF10F00EEF10F00FEF10F021802150B8
:10202000D8B415EF10F017EF10F02AEF10F02128B8
:10203000D8A41DEF10F01FEF10F027EF10F0000EE6
:102040000F6E000E106E000E116E000E126E118ECD
:1020500032EF10F0000E0F6E000E106E000E116EBB
:10206000000E126E1650800B1B1A16501624206E8E
:1020700015AE3DEF10F03FEF10F040EF10F0208074
:102080002050D8B446EF10F048EF10F05BEF10F09E
:102090002028D8A44EEF10F050EF10F058EF10F0B9
:1020A000000E136E000E146E000E156E000E166EEE
:1020B000158E63EF10F0000E136E000E146E000EFE
:1020C000156E000E166E2050D8B469EF10F06BEF4D
:1020D00010F073EF10F02150D8A471EF10F073EFEF
:1020E00010F07DEF10F0000E0F6E000E106E000E5F
:1020F000116E000E126E27EF12F015500F026F00D6
:10210000CCFF26F06F00D0FF27F026501C6E1D6A12
:102110001E6A1F6A2750226E236A246A256A145099
:1021200010026F00CCFF26F06F00D0FF27F0265082
:102130001C26000E1D221E221F2227502226000EC2
:10214000232224222522135011026F00CCFF26F0F7
:102150006F00D0FF27F026501C26000E1D221E22E5
:102160001F2227502226000E2322242225221EC0B1
:102170001FF01DC01EF01CC01DF01C6A1350100281
:102180006F00CCFF26F06F00D0FF27F026501C26F2
:1021900027501D22000E1E22000E1F2214500F0277
:1021A0006F00CCFF26F06F00D0FF27F026501C26D2
:1021B00027501D22000E1E22000E1F221EC01FF0DF
:1021C0001DC01EF01CC01DF01C6A13500F026F00D2
:1021D000CCFF26F06F00D0FF27F026501C2627509A
:1021E0001D22000E1E22000E1F22155010026F002D
:1021F000CCFF26F06F00D0FF27F026502226275074
:102200002322000E2422000E2522145011026F00FA
:10221000CCFF26F06F00D0FF27F026502226275053
:102220002322000E2422000E2522155011026F00D9
:10223000CCFF26F06F00D0FF27F02650176E2750F6
:10224000186E196A1A6A19C01AF018C019F017C066
:1022500018F0176A175022261850232219502422EA
:102260001A5025221CC017F01DC018F01EC019F00E
:102270001FC01AF0190E42EF11F0D8901A3219321D
:1022800018321732E82E3DEF11F017502226185061
:102290002322195024221A5025221EC01FF01DC0CF
:1022A0001EF01CC01DF01C6A205021C017F0186AD7
:1022B0001726000E1822820E1724266EFF0E1820F5
:1022C000276E78EF11F0D890223623362436253643
:1022D0001FAE6DEF11F06FEF11F070EF11F0228073
:1022E000D8901C361D361E361F362606D8A0270667
:1022F00024AE7DEF11F07FEF11F063EF11F0000ECF
:10230000206E1FAE86EF11F088EF11F0ACEF11F0E8
:10231000FF0E1C14176EFF0E1D14186EFF0E1E14F8
:10232000196E7F0E1F141A6E1750181019101A10FC
:10233000D8B49DEF11F09FEF11F0A3EF11F0010E53
:10234000206EACEF11F022A0A8EF11F0AAEF11F06F
:10235000ACEF11F09FEF11F02050D8B4B2EF11F0B4
:10236000B4EF11F0D8EF11F0010E2226000E232257
:102370002422252225A0BFEF11F0C1EF11F0D8EFE4
:1023800011F022C017F023C018F024C019F025C0A6
:102390001AF01A341A3219321832173217C022F0D2
:1023A00018C023F019C024F01AC025F0264A272AA5
:1023B00027BEE3EF11F0275008E12628D8A0E3EF6D
:1023C00011F0E5EF11F0EFEF11F0000E226E000EAC
:1023D000236E800E246E7F0E256E1DEF12F027BE39
:1023E000FCEF11F0275006E12604D8B0FAEF11F007
:1023F000FCEF11F008EF12F0000E226E000E236EBB
:10240000000E246E000E256E000E1B6E1DEF12F0E6
:1024100026C021F0FF0E2216FF0E23167F0E241673
:10242000000E251621A017EF12F019EF12F01AEF87
:1024300012F0248ED8902130256E1B50251222C018
:102440000FF023C010F024C011F025C012F01200CC
:10245000096E0950D8B42FEF12F031EF12F053EF9C
:1024600012F004BE38EF12F036EF12F053EF12F014
:1024700001C005F002C006F003C007F004C008F078
:10248000051E061E071E081E052A000E062207222C
:10249000082205C00BF006C00CF007C00DF008C004
:1024A0000EF05BEF12F001C00BF002C00CF003C0A5
:1024B0000DF004C00EF00150021003100410D8A457
:1024C00064EF12F066EF12F070EF12F0000E016E82
:1024D000000E026E000E036E000E046E01EF13F08C
:1024E000960E0A6E7AEF12F00A2AD8900E320D324A
:1024F0000C320B32000E0B14056E000E0C14066E1F
:10250000000E0D14076EFE0E0E14086E0550061018
:1025100007100810D8A48FEF12F091EF12F074EFAB
:1025200012F09FEF12F00A2A010E0B26000E0C2269
:102530000D220E22D8900E320D320C320B32000ECC
:102540000B14056E000E0C14066E000E0D14076EB3
:10255000FF0E0E14086E0550061007100810D8A4C0
:10256000B4EF12F0B6EF12F093EF12F0BEEF12F0EC
:102570000A06D8900B360C360D360E360DBEC3EF5C
:1025800012F0C5EF12F0CDEF12F0020E0A60CBEFA1
:1025900012F0CDEF12F0B8EF12F00AB0D2EF12F055
:1025A000D4EF12F0D5EF12F00D9ED8900A320AC087
:1025B00005F0066A076A086A05C008F0076A066A35
:1025C000056A05500B1206500C1207500D120850E8
:1025D0000E120950D8B4EFEF12F0F1EF12F0F9EF4C
:1025E00012F004BEF8EF12F0F6EF12F0F9EF12F06D
:1025F0000E8E0BC001F00CC002F00DC003F00EC037
:1026000004F01200000EC56E000E3A01706F000E4D
:10261000BD6E000ECD6E000EC26E000E406F000E3D
:10262000BA6E000ECA6E5CEC13F03E01F881F8B190
:102630001CEF13F01EEF13F017EF13F0EF516F00C4
:10264000C0FB28F0296A28C029F0286A2810386EB3
:102650002950396E38C001F039C002F0000E02BEB8
:10266000FF0E036E046E010E28EC12F001C00FF095
:1026700002C010F003C011F004C012F0330E136E4C
:10268000330E146E530E156E3A0E166E01EC10F0EA
:102690000FC034F010C035F011C036F012C037F062
:1026A0006F00BFFBCDFF3E01F045E846FC0BCA6E54
:1026B00015EF13F0FEEFFFF03E01F851F30B0409A4
:1026C000F86FF899C2803A014081000E3E01F16F27
:1026D000000EFF6F000EEF6F000EF06F000EF66F32
:1026E000000EF76F000EF36F000EF46FF88F1200FC
:1026F00000EE2AF0100EEE6AE806FDE1000102EF9E
:0227000013F0D4
:020000040001F9
:04FFFC0078EF13F097
:020000040030CA
:0A000000F8FFFFFF9FFFFFFFFFFF67
:00000001FF
