:04000000FEEFFFF020
:1020000000001868010ECB6E12EF10F00D0EA5EF58
:1020100010F00C0EA5EF10F00B0EA5EF10F00A0E4D
:10202000A5EF10F0CB50110AD8B406EF10F0300A2B
:10203000D8B409EF10F0600AD8B40CEF10F0C00A61
:10204000D8B40FEF10F025EF10F0020ECB6E0D0E8E
:10205000016EFC0EE82EFED7012EFCD73CEF10F0EF
:102060000F0EA5EF10F0090EA5EF10F0060EA5EF6C
:1020700010F0030EA5EF10F0CB50120AD8B430EFD9
:1020800010F0300AD8B433EF10F0600AD8B436EF4D
:1020900010F0C00AD8B439EF10F04FEF10F0040E72
:1020A000CB6E0D0E016EFC0EE82EFED7012EFCD776
:1020B00066EF10F0000EA5EF10F0080EA5EF10F07F
:1020C000050EA5EF10F0020EA5EF10F0CB50140A8C
:1020D000D8B45AEF10F0300AD8B45DEF10F0600AAF
:1020E000D8B460EF10F0C00AD8B463EF10F079EF05
:1020F00010F0080ECB6E0D0E016EFC0EE82EFED712
:10210000012EFCD790EF10F00E0EA5EF10F0070E89
:10211000A5EF10F0040EA5EF10F0010EA5EF10F0E2
:10212000CB50180AD8B484EF10F0300AD8B487EF37
:1021300010F0600AD8B48AEF10F0C00AD8B48DEF5E
:1021400010F0A3EF10F0186818501200F00EC36ED4
:10215000000EBB6E000ECB6E000E3A01506F000EEB
:10216000C56E000EBD6E000ECD6E000E706F07ECDA
:1021700012F0010ECD6E030E136E8A0E126E560E05
:10218000E82EFED7122EFCD7132EFAD746EC12F00B
:10219000030ECD6E030E136E8A0E126E560EE82ECF
:1021A000FED7122EFCD7132EFAD7C8EC11F0020E70
:1021B000CD6E030E136E8A0E126E560EE82EFED7EB
:1021C000122EFCD7132EFAD717C009F00A6A16C0D0
:1021D0000BF00C6A15C00DF00E6A79EC11F0146E5C
:1021E00014506FEC12F00D0E126EFC0EE82EFED79E
:1021F000122EFCD7186807EF11F00D0E126EFC0EB0
:10220000E82EFED7122EFCD701EC10F0186E01EC70
:1022100010F00E0AD8A40FEF11F011EF11F0FDEF3E
:1022200010F0800ECD6EB7EF10F0FEEFFFF0000E55
:10223000066E04BE20EF11F01EEF11F026EF11F034
:10224000036C041ED8B0042A010E066E02BE2DEFE8
:1022500011F02BEF11F033EF11F0016C021ED8B02A
:10226000022A010E061A000E086E000E076E0350B9
:102270000410D8B43EEF11F040EF11F068EF11F008
:10228000010E056E48EF11F0D89003360436052A8A
:1022900004AE4DEF11F04FEF11F044EF11F0D89074
:1022A000073608360350015C04500258D8A05BEF93
:1022B00011F05DEF11F062EF11F00350015E045078
:1022C000025A0780D89004320332052E4FEF11F0E6
:1022D0000650D8B46EEF11F070EF11F074EF11F0FA
:1022E000076C081ED8B0082A07C001F008C002F029
:1022F0001200000E116EA8EF11F009500B24116EA0
:102300001150C7EF11F00B50095C116E80EF11F006
:1023100009500B026F00CCFF11F080EF11F00B5051
:102320000C10D8B496EF11F098EF11F080EF11F087
:1023300009C001F00AC002F00BC003F00CC004F0A9
:1023400017EC11F00150116E80EF11F0C6EF11F093
:102350000DC00FF00EC010F01050000AD8B4B3EF4B
:1023600011F0A6EF11F00F500A0AD8B47DEF11F06A
:10237000010AD8B483EF11F0070AD8B488EF11F03E
:10238000010AD8B48FEF11F0A6EF11F0000E120081
:10239000000E166E1868D7EF11F001EC10F0186EF1
:1023A0000D0E026EFC0EE82EFED7022EFCD70A0E92
:1023B0001860DDEF11F0DFEF11F0CDEF11F0020E3C
:1023C000036E860E026E990EE82EFED7022EFCD703
:1023D000032EFAD7000018500A0DF350162618687D
:1023E000FCEF11F001EC10F0186E0D0E026EFC0EF9
:1023F000E82EFED7022EFCD70A0E186002EF12F06C
:1024000004EF12F0F2EF11F0185016261200000E31
:10241000176E186816EF12F001EC10F0186E0D0E22
:10242000026EFC0EE82EFED7022EFCD70A0E1860B4
:102430001CEF12F01EEF12F00CEF12F0020E036E02
:10244000860E026E990EE82EFED7022EFCD7032EC2
:10245000FAD7000018500A0DF350172618683BEF02
:1024600012F001EC10F0186E0D0E026EFC0EE82E4C
:10247000FED7022EFCD70A0E186041EF12F043EF90
:1024800012F031EF12F0185017261200000E156EE0
:10249000186855EF12F001EC10F0186E0D0E026E78
:1024A000FC0EE82EFED7022EFCD7100E18605BEF54
:1024B00012F05DEF12F04BEF12F0090E186463EFAB
:1024C00012F065EF12F04BEF12F018C015F0120089
:1024D000176A166A156A146A0001A6EF10F0016EF9
:0824E000600007F0CDFF1200BF
:020000040001F9
:04FFFC0068EF12F0A8
:020000040030CA
:0A000000F8FFFFFF9FFFFFFFFFFF67
:00000001FF
