:04000000FEEFFFF020
:1020000000001868010ECB6E110ECB18D8A40BEF90
:1020100010F00DEF10F016EF10F00D0E186E0D0E03
:10202000016EFC0EE82EFED7012EFCD7210ECB1838
:10203000D8A41DEF10F01FEF10F028EF10F00C0ED9
:10204000186E0D0E016EFC0EE82EFED7012EFCD789
:10205000410ECB18D8A42FEF10F031EF10F03AEF6B
:1020600010F00B0E186E0D0E016EFC0EE82EFED752
:10207000012EFCD7810ECB18D8A441EF10F043EF0E
:1020800010F04CEF10F00A0E186E0D0E016EFC0EE3
:10209000E82EFED7012EFCD7020ECB6E0D0E016E80
:1020A000FC0EE82EFED7012EFCD7120ECB18D8A4BA
:1020B0005CEF10F05EEF10F067EF10F00F0E186E8F
:1020C0000D0E016EFC0EE82EFED7012EFCD7220E5F
:1020D000CB18D8A46EEF10F070EF10F079EF10F07D
:1020E000090E186E0D0E016EFC0EE82EFED7012EA5
:1020F000FCD7420ECB18D8A480EF10F082EF10F07E
:102100008BEF10F0060E186E0D0E016EFC0EE82E11
:10211000FED7012EFCD7820ECB18D8A492EF10F078
:1021200094EF10F09DEF10F0030E186E0D0E016E7F
:10213000FC0EE82EFED7012EFCD7040ECB6E0D0E42
:10214000016EFC0EE82EFED7012EFCD7140ECB1824
:10215000D8A4ADEF10F0AFEF10F0B8EF10F0000E14
:10216000186E0D0E016EFC0EE82EFED7012EFCD768
:10217000240ECB18D8A4BFEF10F0C1EF10F0CAEFB7
:1021800010F0080E186E0D0E016EFC0EE82EFED734
:10219000012EFCD7440ECB18D8A4D1EF10F0D3EF0A
:1021A00010F0DCEF10F0050E186E0D0E016EFC0E37
:1021B000E82EFED7012EFCD7840ECB18D8A4E3EF6F
:1021C00010F0E5EF10F0EEEF10F0020E186E0D0EAD
:1021D000016EFC0EE82EFED7012EFCD7080ECB6E4A
:1021E0000D0E016EFC0EE82EFED7012EFCD7180E48
:1021F000CB18D8A4FEEF10F000EF11F009EF11F0AA
:102200000E0E186E0D0E016EFC0EE82EFED7012E7E
:10221000FCD7280ECB18D8A410EF11F012EF11F054
:102220001BEF11F0070E186E0D0E016EFC0EE82E5E
:10223000FED7012EFCD7480ECB18D8A422EF11F000
:1022400024EF11F02DEF11F0040E186E0D0E016E3B
:10225000FC0EE82EFED7012EFCD7880ECB18D8A492
:1022600034EF11F036EF11F03FEF11F0010E186E60
:102270000D0E016EFC0EE82EFED7012EFCD7185075
:102280001200F00EC36E000EBB6E000ECB6E000E81
:102290003A01506F000EC56E000EBD6E000ECD6E81
:1022A000000E706FADEC12F0010ECD6E030E136ECA
:1022B0008A0E126E560EE82EFED7122EFCD7132E63
:1022C000FAD7ECEC12F0030ECD6E030E136E8A0EED
:1022D000126E560EE82EFED7122EFCD7132EFAD70A
:1022E0006EEC12F0020ECD6E030E136E8A0E126E9D
:1022F000560EE82EFED7122EFCD7132EFAD71868EA
:102300008CEF11F00D0E126EFC0EE82EFED7122E81
:10231000FCD701EC10F0186E0F0E1818D8A493EF2C
:1023200011F095EF11F082EF11F017C009F00A6A71
:1023300016C00BF00C6A15C00DF00E6A2AEC12F0F4
:10234000146E145015EC13F00D0E126EFC0EE82EE8
:10235000FED7122EFCD71868B8EF11F00D0E126ED2
:10236000FC0EE82EFED7122EFCD701EC10F0186EF2
:1023700001EC10F00E0AD8A4C0EF11F0C2EF11F07A
:10238000AEEF11F0800ECD6E52EF11F0FEEFFFF0C8
:10239000000E066E04BED1EF11F0CFEF11F0D7EFB3
:1023A00011F0036C041ED8B0042A010E066E02BEA2
:1023B000DEEF11F0DCEF11F0E4EF11F0016C021E22
:1023C000D8B0022A010E061A000E086E000E076E23
:1023D00003500410D8B4EFEF11F0F1EF11F019EF42
:1023E00012F0010E056EF9EF11F0D89003360436A5
:1023F000052A04AEFEEF11F000EF12F0F5EF11F038
:10240000D890073608360350015C04500258D8A013
:102410000CEF12F00EEF12F013EF12F00350015E0A
:102420000450025A0780D89004320332052E00EF80
:1024300012F00650D8B41FEF12F021EF12F025EF82
:1024400012F0076C081ED8B0082A07C001F008C0B7
:1024500002F012004EEF12F009500B24116E1150D1
:102460006DEF12F00B50095C116E2FEF12F0095056
:102470000B026F00CCFF11F02FEF12F009C001F03A
:102480000AC002F00BC003F00CC004F0C8EC11F05D
:102490000150116E2FEF12F06CEF12F00DC00FF023
:1024A0000EC010F01050000AD8B459EF12F04CEFE3
:1024B00012F00F500A0AD8B42CEF12F0010AD8B467
:1024C00032EF12F0070AD8B437EF12F0010AD8B48D
:1024D0003EEF12F04CEF12F0000E1200000E166EDE
:1024E00018687DEF12F001EC10F0186E0D0E026E00
:1024F000FC0EE82EFED7022EFCD70A0E186083EFE2
:1025000012F085EF12F073EF12F0020E036E860EDA
:10251000026E990EE82EFED7022EFCD7032EFAD7B4
:10252000000018500A0DF35016261868A2EF12F09A
:1025300001EC10F0186E0D0E026EFC0EE82EFED7A8
:10254000022EFCD70A0E1860A8EF12F0AAEF12F0C4
:1025500098EF12F0185016261200000E176E186829
:10256000BCEF12F001EC10F0186E0D0E026EFC0EB6
:10257000E82EFED7022EFCD70A0E1860C2EF12F02A
:10258000C4EF12F0B2EF12F0020E036E860E026E6E
:10259000990EE82EFED7022EFCD7032EFAD70000A4
:1025A00018500A0DF35017261868E1EF12F001ECED
:1025B00010F0186E0D0E026EFC0EE82EFED7022EE5
:1025C000FCD70A0E1860E7EF12F0E9EF12F0D7EF30
:1025D00012F0185017261200000E156E1868FBEF47
:1025E00012F001EC10F0186E0D0E026EFC0EE82ECB
:1025F000FED7022EFCD7100E186001EF13F003EF88
:1026000013F0F1EF12F0090E186409EF13F00BEF5D
:1026100013F0F1EF12F018C015F01200176A166AE5
:10262000156A146A000141EF11F0016E600007F0B5
:04263000CDFF1200C8
:020000040001F9
:04FFFC000EEF13F001
:020000040030CA
:0A000000F8FFFFFF9FFFFFFFFFFF67
:00000001FF
