:04000000FEEFFFF020
:1020000000001968010ECB6E0D0E016EFC0EE82E5D
:10201000FED7012EFCD7CB501EEF10F00D0E196E1F
:1020200031EF10F00C0E196E31EF10F00B0E196E2F
:1020300031EF10F00A0E196E31EF10F0CB50110A8B
:10204000D8B40EEF10F0300AD8B412EF10F0600AD6
:10205000D8B416EF10F0C00AD8B41AEF10F031EF70
:1020600010F0020ECB6E0D0E016EFC0EE82EFED7A8
:10207000012EFCD74CEF10F00F0E196E5FEF10F031
:10208000090E196E5FEF10F0060E196E5FEF10F07B
:10209000030E196E5FEF10F0CB50120AD8B43CEF6C
:1020A00010F0300AD8B440EF10F0600AD8B444EF12
:1020B00010F0C00AD8B448EF10F05FEF10F0040E33
:1020C000CB6E0D0E016EFC0EE82EFED7012EFCD756
:1020D0007AEF10F0000E196E8DEF10F0080E196EE9
:1020E0008DEF10F0050E196E8DEF10F0020E196EC7
:1020F0008DEF10F0CB50140AD8B46AEF10F0300A0C
:10210000D8B46EEF10F0600AD8B472EF10F0C00AC5
:10211000D8B476EF10F08DEF10F0080ECB6E0D0EE8
:10212000016EFC0EE82EFED7012EFCD7A8EF10F0B2
:102130000E0E196EBBEF10F0070E196EBBEF10F00C
:10214000040E196EBBEF10F0010E196EBBEF10F00C
:10215000CB50180AD8B498EF10F0300AD8B49CEFDE
:1021600010F0600AD8B4A0EF10F0C00AD8B4A4EF01
:1021700010F0BBEF10F0410E016EEE0EE82EFED710
:10218000012EFCD700D06F002CFF02F00228D8B43B
:10219000CCEF10F0CEEF10F0DAEF10F0CB500218C9
:1021A000D8A4D5EF10F0D7EF10F0DAEF10F01950F7
:1021B000DBEF10F0FF0E1200F00EC36E000EBB6ED0
:1021C000000ECB6E000E3A01506F000EC56E000E71
:1021D000BD6E000ECD6E000E706F1CEC12F0010E85
:1021E000CD6E53EC12F0E5EC11F0020ECD6E00EF67
:1021F00011F0820E126EDE0EE82EFED7122EFCD7E4
:10220000020E126E200E136E000E146E0F0E1218B8
:1022100013101410D8A40FEF11F011EF11F0F9EF13
:1022200010F018C009F00A6A17C00BF00C6A16C04B
:102230000DF00E6AA0EC11F0156E15507CEC12F04A
:1022400029EF11F0820E126EDE0EE82EFED7122E4E
:10225000FCD7020E126E200E136E000E146E0F0EBF
:10226000121813101410D8A438EF11F03AEF11F02F
:1022700022EF11F0EDEF10F0FEEFFFF0000E066E12
:1022800004BE47EF11F045EF11F04DEF11F0036C74
:10229000041ED8B0042A010E066E02BE54EF11F0DF
:1022A00052EF11F05AEF11F0016C021ED8B0022A61
:1022B000010E061A000E086E000E076E0350041081
:1022C000D8B465EF11F067EF11F08FEF11F0010E48
:1022D000056E6FEF11F0D89003360436052A04AE70
:1022E00074EF11F076EF11F06BEF11F0D890073624
:1022F00008360350015C04500258D8A082EF11F058
:1023000084EF11F089EF11F00350015E0450025A7E
:102310000780D89004320332052E76EF11F0065074
:10232000D8B495EF11F097EF11F09BEF11F0076C17
:10233000081ED8B0082A07C001F008C002F0120039
:10234000C5EF11F009500B24116EE3EF11F00B50A3
:10235000095C116EE3EF11F009500B026F00CCFF26
:1023600011F0E3EF11F009C001F00AC002F00BC058
:1023700003F00CC004F03EEC11F00150116EE3EFDD
:1023800011F0000E116EE3EF11F00DC00FF00EC052
:1023900010F01050000AD8B4D0EF11F0C1EF11F0D6
:1023A0000F500A0AD8B4A2EF11F0010AD8B4A7EF6F
:1023B00011F0070AD8B4ACEF11F0010AD8B4B3EFAA
:1023C00011F0C1EF11F011501200000E176E1968D4
:1023D000EDEF11F001EC10F0196E0A0E1960F3EF39
:1023E00011F0F5EF11F0EAEF11F00D0E036EFC0E97
:1023F000E82EFED7032EFCD71750100DF3501924EA
:10240000176E196807EF12F001EC10F0196E0A0E42
:1024100019600DEF12F00FEF12F004EF12F00D0E35
:10242000036EFC0EE82EFED7032EFCD71750100DBE
:10243000F3501924176E1200000E186E196824EF5D
:1024400012F001EC10F0196E0A0E19602AEF12F06A
:102450002CEF12F021EF12F00D0E036EFC0EE82EA1
:10246000FED7032EFCD71850100DF3501924186E08
:1024700019683EEF12F001EC10F0196E0A0E1960A7
:1024800044EF12F046EF12F03BEF12F00D0E036E28
:10249000FC0EE82EFED7032EFCD71850100DF3507B
:1024A0001924186E1200000E166E19685BEF12F0F8
:1024B00001EC10F0196E0E0E196061EF12F063EF6F
:1024C00012F058EF12F0090E196469EF12F06BEF79
:1024D00012F058EF12F00D0E036EFC0EE82EFED730
:1024E000032EFCD719C016F01200186A176A166A74
:1024F000156A0001DCEF10F0016E600007F0CDFFFF
:022500001200C7
:020000040001F9
:04FFFC0075EF12F09B
:00000001FF
