:0400000057EF20F0A6
:022000000000DE
:104008002B102B102B102B102B102B102B102B10D0
:10401800BB102B102B102B102B102B102B102B1030
:104028002B102B102B102B102B102B102B102B10B0
:104038002B102B102B102B102B102B102B102B10A0
:104048002B102B102B102B102B102B102B102B1090
:104058002B102B102B102B102B102B102B102B1080
:104068002B102B102B102B102B102B102B102B1070
:104078002B102B102B102B102B102B102B102B1060
:104088002B102B102B102B102B102B102B102B1050
:104098002B102B102B102B102B102B102B102B1040
:1040A8002B102B10FF005DEF21F0000E046E000EA8
:1040B800056E000E066E000E076E000E086E000EEE
:1040C8000A6E000E096E6AEC21F0036E820E016E14
:1040D800DE0EE82EFED7012EFCD782EF20F0042A50
:1040E80095EF20F0052A95EF20F0062A95EF20F0AD
:1040F800072A95EF20F0082A95EF20F00350000AD0
:10410800D8B473EF20F0010AD8B476EF20F0030A90
:10411800D8B479EF20F0010AD8B47CEF20F07FEF13
:1041280020F0094A0A2A0ABEA3EF20F00A5009E142
:10413800200E095CD8A0A3EF20F0A5EF20F067EFD0
:1041480020F004500424CD6ECBA2ADEF20F0AFEFE9
:1041580020F0A8EF20F0020E026E040E016EBA0ED7
:10416800E82EFED7012EFCD7022EFAD700D0055034
:104178000524CD6ECBA2C3EF20F0C5EF20F0BEEF33
:1041880020F0020E026E040E016EBA0EE82EFED763
:10419800012EFCD7022EFAD700D006500624CD6E89
:1041A800CBA2D9EF20F0DBEF20F0D4EF20F0020E05
:1041B800026E040E016EBA0EE82EFED7012EFCD751
:1041C800022EFAD700D007500724CD6ECBA2EFEF0E
:1041D80020F0F1EF20F0EAEF20F0020E026E040E5C
:1041E800016EBA0EE82EFED7012EFCD7022EFAD7A2
:1041F80000D008500824CD6ECBA205EF21F007EFC0
:1042080021F000EF21F0020E026E040E016EBA0ECC
:10421800E82EFED7012EFCD7022EFAD700D0CD808B
:10422800820E016EDE0EE82EFED7012EFCD7CD9051
:104238001200C368000E3A01506F000EBB6E010EEB
:10424800C26E010E406F000EBA6E000ECA6E000EEE
:10425800C56E000E706F000EBD6E000ECD6E3E0175
:10426800F851F30B0409F86FF899C2803A014081BC
:10427800000E3E01F16F000EFF6F000EEF6F000E93
:10428800F06F000EF66F000EF76F000EF36F000E62
:10429800F46FF88FD28AD28ED28CD2803901819174
:1042A8009181A191000ED76E400ED66E080ED56E84
:1042B80012000E6A0D6A0C6A0B6A080ED56E400E63
:1042C800D66E000ED76E000182EF21F03E01F88114
:1042D800F8B171EF21F073EF21F06CEF21F0EF519D
:1042E800030B12003901A1A17CEF21F07EEF21F030
:1042F80081EF21F0FF003901A19111001DEC21F09F
:0843080059EC20F057EF20F002
:020000040030CA
:0A000000F8FFFFFF9FFFFFFFFFFF67
:00000001FF
